:020000040800F2
:1000000098AB0120A9020008E12E0008B12C0008DD
:10001000D92E00084907000801310008000000003F
:10002000000000000000000000000000612F000838
:10003000C907000800000000F12E0008E12F0008A9
:10004000C3020008C3020008C3020008C30200087C
:10005000C3020008C3020008C3020008C30200086C
:10006000C3020008C3020008C3020008C30200085C
:10007000C3020008C3020008C3020008C30200084C
:10008000C3020008C3020008C3020008C30200083C
:10009000510700086107000871070008C302000843
:1000A000C3020008C3020008C3020008C30200081C
:1000B000C3020008C3020008C3020008C30200080C
:1000C000C3020008C3020008C3020008C3020008FC
:1000D000C3020008C3020008C3020008C3020008EC
:1000E000C3020008C3020008C3020008C3020008DC
:1000F000C3020008C3020008C3020008C3020008CC
:10010000C3020008C3020008C3020008C3020008BB
:10011000C3020008C3020008C3020008C3020008AB
:10012000C3020008C3020008C3020008C30200089B
:10013000C3020008C3020008C3020008C30200088B
:10014000C3020008C3020008C3020008C30200087B
:10015000C3020008C3020008C3020008C30200086B
:10016000C3020008C3020008C3020008C30200085B
:10017000C3020008C3020008C30200080000000018
:10018000C3020008C3020008C3020008C30200083B
:10019000C3020008C3020008C3020008C30200082B
:1001A000C3020008C3020008C3020008C30200081B
:1001B000C3020008C3020008C3020008C30200080B
:1001C000C3020008C302000800000000C3020008C8
:1001D000C3020008C3020008C3020008C3020008EB
:1001E000C3020008C3020008C3020008C3020008DB
:1001F000C3020008C302000800F002F800F044F84F
:100200000AA090E8000C82448344AAF10107DA4571
:1002100001D100F039F8AFF2090EBAE80F0013F07F
:10022000010F18BFFB1A43F001031847485800009C
:1002300068580000103A24BF78C878C1FAD852072D
:1002400024BF30C830C144BF04680C607047000050
:100250000023002400250026103A28BF78C1FBD8CF
:10026000520728BF30C148BF0B607047752900F0A6
:10027000DD80632900F0F081002070471FB505F094
:1002800077FA1FBD10B510BD00F024FA1146FFF734
:10029000F5FF02F03DFF00F042FA03B4FFF7F2FF72
:1002A00003BC00F049FA00000948804709480047AC
:1002B000FEE7FEE7FEE7FEE7FEE7FEE7FEE7FEE716
:1002C000FEE7FEE704480549054A064B7047000073
:1002D000D1300008F9010008989B012098AB01205B
:1002E00098A3012098A3012053EA020C00F0698032
:1002F0002DE9F04B4FF00006002B1FBFB3FA83F53A
:1003000003FA05F424FA05F65E4012BF1643B2FA6A
:1003100082F502FA05F4C5F120051EBF22FA05FC9C
:1003200044EA0C04203556EA044C4FEA144418BF42
:10033000641C4FF000084FF00009904271EB030C71
:1003400039D3002919BFB1FA81F701FA07F6B0FADB
:1003500080F700FA07F6C7F120071EBF20FA07FC56
:1003600046EA0C062037B6FBF4FCA7EB0507103F66
:1003700007F01F0BCBF120062CFA06F60CFA0BFB4C
:1003800044BFB3460026202FA4BF5E464FF0000BAB
:100390005BEA060C08BF4FF0010B19EB0B0948EBA9
:1003A0000608ABFB027C06FB02CC0BFB03CCC01B9C
:1003B00071EB0C01C1E70B46024641464846BDE8D9
:1003C000F08B13B5084318BF4FF0FF300146AFF371
:1003D0000080BDE81C40704770B50C460546012AF8
:1003E00005D02878800600D5EA69002302E00123C1
:1003F00005E05B1C934202D2E05C0028F9D1A869B9
:10040000E618C01AA861286A184428622846AFF383
:10041000008004E0D5E9012114F8010B9047B442B3
:10042000F8D32846AFF3008070BD00002DE9F041FD
:100430000646002410687529314616A510D0AFF382
:100440000080002802DA404213A507E031688A07DD
:1004500001D512A502E0490704D511A5012401E048
:10046000AFF3008000210A2206F1240709E0B0FB67
:10047000F2FCB0FBF2F302FB1C003030785418465B
:10048000491C0028F3D123462A463046BDE8F041F6
:1004900000F07FB8000000002D0000002B000000DD
:1004A00020000000032A40F2308010F0030C00F01E
:1004B000158011F8013BBCF1020F624498BF11F89E
:1004C00001CB00F8013B38BF11F8013BA2F1040257
:1004D00098BF00F801CB38BF00F8013B11F00303CF
:1004E00000F0C680083AC0F0088051F8043B083A92
:1004F00051F804CBA0E80810F5E7121D5CBF51F8D5
:10050000043B40F8043BAFF30080D20724BF11F84E
:10051000013B11F801CB48BF11F8012B24BF00F8B3
:10052000013B00F801CB48BF00F8012B704702F0F7
:10053000FF0343EA032242EA024200F002B84FF00E
:10054000000200B5134694469646203922BFA0E823
:100550000C50A0E80C50B1F12001BFF4F7AF09072F
:1005600028BFA0E80C5048BF0CC05DF804EB890020
:1005700028BF40F8042B08BF704748BF20F8022B63
:1005800011F0804F18BF00F8012B7047704770477B
:1005900070472DE9F0470D4699469246044600F112
:1005A00024080168880604D5E06921F01001216063
:1005B00000E00120A84201DD471B00E00027A169FF
:1005C0007A1902EB0900081AA0612078C00602D44B
:1005D0002046AFF30080002608E0D4E901211AF894
:1005E00006009047206A401C761C20624E45F4DBD2
:1005F0002078C0060AD52046AFF3008006E0D4E993
:10060000012130209047206A401C2062381EA7F14B
:100610000107F4DC07E0D4E9012118F80500904750
:10062000206A401C2062281EA5F10105F3DC20464B
:10063000AFF300802078000602D50220BDE8F087E5
:100640000120FBE710B5436913B1AFF3008001E06F
:10065000FFF7C2FE012010BD127800F124010A70DC
:1006600000224A700122EDE711684FF0FF32E9E7FE
:1006700010B5203AC0F00B80B1E81850A0E818502F
:10068000B1E81850A0E81850203ABFF4F5AF5FEA7F
:10069000027C24BFB1E81850A0E8185044BF18C924
:1006A00018C0BDE810405FEA827C24BF51F8043BCB
:1006B00040F8043B08BF7047D20728BF31F8023B1F
:1006C00048BF11F8012B28BF20F8023B48BF00F8B3
:1006D000012B7047754600F02BF8AE4605006946C1
:1006E000534620F00700854618B020B5FFF7EAFD15
:1006F000BDE820404FF000064FF000074FF0000823
:100700004FF0000BAC46ACE8C009ACE8C009ACE85F
:10071000C009ACE8C00921F007018D46704710B54B
:100720000446AFF300802046BDE81040FFF7B5BD9A
:10073000004870471000002001491820ABBEFEE7BA
:100740002600020070470000FEE7000000000000E5
:1007500040F28040C2F2000000F0AAB900000000A0
:1007600040F28040C2F2000000F0A2B90000000098
:1007700040F28040C2F2000000F09AB90000000090
:10078000704700000000000010B540F2700040F219
:100790008044C2F20000C2F200040021C0E900114E
:1007A000C0E90211C0E9041181610121C0E907110A
:1007B0000E214162204600F02BFC06212046BDE8B8
:1007C000104000F00DB8000070470000000000006D
:1007D000EFF3108072B600BFFEE7000000000000DB
:1007E00070B5054648F68070C0F203000C4695F8D7
:1007F0002060814207D345F6A80040F27B61C0F635
:10080000000002F081FC701E012804D8286800F165
:100810001401002004E005F1240101204FF480249C
:100820000A6822430A6070BD2DE9F04381B0064694
:1008300090F8207000680D46994690468468886854
:1008400040F00400042807D045F6A80040F2EB4130
:10085000C0F6000002F058FCE86840F002000228F0
:1008600007D045F6A80040F2EC41C0F6000002F0C7
:100870004BFC2869092807D345F6A80040F2ED4152
:10088000C0F6000002F040FCA86830B16868B0F122
:10089000005F0ED340F2F44105E02868B0F5006F28
:1008A00007D34FF49E6145F6A800C0F6000002F0A1
:1008B0002BFC287D022807D345F6A80040F2F6411C
:1008C000C0F6000002F020FC781E012810D814F0B9
:1008D000E05F13D0C4F3016001218140C9F800102A
:1008E000A96889B16A68EB6843EAC20211430FE064
:1008F00006F1240101204FF4802226E006F12401B4
:1009000001204FF4001220E02968EA6842EA4151D0
:10091000326802EB0010C0F880112969C0F8841118
:10092000297D012905D100F5C2710A6842F480725F
:100930000A60D8F80420C0F88C2100F5C071D8F8FE
:100940000020C0F88821002001220B681A430A60A9
:1009500001B0BDE8F0830000704700000000000017
:100960002DE9F04190F820600D4604460229984692
:10097000174607D345F6A80040F2EA51C0F600003A
:1009800002F0C2FB701E01280AD8206875B1006908
:1009900080070ED104F1240101204FF400127FE002
:1009A00004F1240101204FF4802279E0C06880071F
:1009B00071D0206800EB0510D0F8B01111F00401DF
:1009C000B96000F5D871D0F8B02102D1520D3A606B
:1009D00001E0D2087A60096801F00201F960D0F8FC
:1009E000B41101F00F013961D0F8B411C1F307213E
:1009F000B961D0F8B4114FEA11417961D0F8B8016A
:100A000088F80000206800EB0510D0F8B8014FEA24
:100A1000102088F80100206800EB0510D0F8B8011C
:100A20004FEA104088F80200206800EB0510D0F86B
:100A3000B8014FEA106088F80300206800EB051049
:100A4000D0F8BC0188F80400206800EB0510D0F84D
:100A5000BC014FEA102088F80500206800EB051063
:100A6000D0F8BC014FEA104088F80600206800EB7F
:100A70000510D0F8BC014FEA106088F80700206824
:100A800025B100F110010020202209E000F10C0145
:100A90000020202204E004F1240101204FF4001280
:100AA0000B681A430A60BDE8F081000000000000F6
:100AB0002DE9F04F81B0044600684669D0F80490F3
:100AC0008768D0F80CB0F107D0F810A0D0F81880E3
:100AD00003D1002530071DD424E0F90711D0B90750
:100AE0004FF00101816009D4780700F1AB8038072D
:100AF00000F1B180204600F0BBFA02E0204600F091
:100B0000BBFA0025F80500F18580F80300F1AB8001
:100B1000300707D51BF0100004D0206845F400759D
:100B20001021C160700708D51BF0080005D02068AF
:100B30000821C160204600F047FAB00706D52068BA
:100B4000C068800702D0204600F04AFA700607D538
:100B50001AF0100004D0206845F48065102101616E
:100B6000B00608D51AF0080005D0206808210161F8
:100B7000204600F041FAF00606D52068006980079B
:100B800002D0204600F03CFAB00308D519F010005E
:100B900005D0206810214160204600F035FAF003AE
:100BA00008D519F0080005D02068082141602046CA
:100BB00000F076FA300440F190805FEA497040F12D
:100BC000898006F480705FEA887108EA102040EAA4
:100BD0000500014648BF41F00201B20558BF014679
:100BE0005FEA48700D4648BF45F00405700558BFE0
:100BF0000D4630056ED518F070006BD01038000926
:100C0000052862D8DFE800F0035356595C5F45F0D1
:100C100008055AE02068B9054FF4807181600AD454
:100C2000780512D4380519D4204600F029FAF803C3
:100C30007FF56EAF17E0204600F026FAF8037FF547
:100C400067AF10E04FF400655CE705F50055F80369
:100C50007FF55EAF07E04FF4805553E705F580451B
:100C6000F8037FF555AF2068B9034FF480318160F8
:100C70000AD478030FD4380313D4204600F008FABE
:100C800030073FF547AF4DE7204600F005FA300743
:100C90003FF540AF46E705F5004530073FF53AAF71
:100CA00040E705F5803530073FF534AF3AE745F0CA
:100CB00010050AE045F0200507E045F0400504E096
:100CC00045F0800501E045F480752068816921F0D8
:100CD0007001816120680421416045B1606A284348
:100CE0006062204601B0BDE8F04FFFF735BE01B0AD
:100CF000BDE8F08F00000000B0B5002800F0B8801B
:100D000043F2004104460068C4F20001884213D057
:100D100046F20041C4F2000188420DD046F60001BF
:100D2000C4F20001884207D045F6A80040F21D1128
:100D3000C0F6000002F0E8F9207E022807D345F64D
:100D4000A8004FF48F71C0F6000002F0DDF9607E5C
:100D5000022807D345F6A80040F21F11C0F6000094
:100D600002F0D2F9A07E022807D345F6A8004FF47E
:100D70009071C0F6000002F0C7F9E07E022807D3A8
:100D800045F6A80040F22111C0F6000002F0BCF9BF
:100D9000207F022807D345F6A8004FF49171C0F6D2
:100DA000000002F0B1F9607F022807D345F6A800E1
:100DB00040F22311C0F6000002F0A6F9A0688000FE
:100DC00007D045F6A8004FF49271C0F6000002F07B
:100DD0009BF9E0684FEA3060042807D345F6A80085
:100DE00040F22511C0F6000002F08EF920694FEAAA
:100DF0003040102807D345F6A8004FF49371C0F691
:100E0000000002F081F960694FEA305107290AD3E6
:100E1000B0F5E00F07D045F6A80040F22711C0F664
:100E2000000002F071F960680138B0F5806F07D3F7
:100E300045F6A8004FF49471C0F6000002F064F982
:100E400094F8200010B9204600F06EF82068016880
:100E500041F00101016000F067FB05462068416830
:100E6000C90707D100F060FB401B0B28F6D312E046
:100E70000120B0BD016821F00201016000F054FBC7
:100E8000054600BF2068416889070DD500F04CFB7E
:100E9000401B0B28F6D3606A052140F400306062E5
:100EA000012084F82010B0BD217E026822F080026B
:100EB000251D012908BF80320260617E026822F090
:100EC0004002012908BF40320260A17E026822F080
:100ED0002002012908BF20320260E17E026822F070
:100EE0001002012918BF10320260217F026822F02F
:100EF0000802012908BF08320260617F026822F0FF
:100F00000402012908BF043202602ECD1A4363692E
:100F10002A4301391A431143C16100206062012153
:100F200084F82010B0BD000080B586B046F20041C4
:100F30000068C4F20001002288420592CDE9032234
:100F40000292019201D006B080BD43F63000C4F297
:100F50000200036943F000730361036903F0007347
:100F60000093009B036843F001030360006800F0F6
:100F70000100009000984FF4C05001900220CDE98C
:100F80000202032004900920059001F5CE3001A94A
:100F900000F07AF914200521002200F051FB142002
:100FA00000F036FB15200521002200F049FB15203A
:100FB00000F02EFB16200521002200F041FB162038
:100FC00000F026FB06B080BD40F2980240F21423E8
:100FD000C2F20002C2F200030021FFF7C1BC000010
:100FE00040F2980240F21423C2F20002C2F200035F
:100FF0000021FFF7B5BC00007047000000000000B2
:101000007047000000000000704700000000000072
:10101000B0B5044690F8200001281DD1022084F8C4
:1010200020002068016821F00101016000F07CFAD5
:10103000054600BF20684068C00713D000F074FA6E
:10104000401B0B28F6D3606A40F400306062052034
:1010500084F820000120B0BD606A40F40020606286
:101060000120B0BD00206062B0BD000000000000A3
:101070007047000000000000704700000000000002
:1010800070470000000000007047000000000000F2
:1010900070470000000000007047000000000000E2
:1010A0007047000000000000F0B581B04FEAF20781
:1010B0001446042F0D46064606D345F6FF105F2161
:1010C000C0F6000002F020F81F2100BFA9B10139CD
:1010D00001F01F0025FA00F0C007F7D0032F10D849
:1010E00001220020DFE807F019021123002200206E
:1010F0000F2988BF012010291FE04FF0FF31032F77
:10110000EED90120002282B108E000220020072948
:1011100088BF0120082938BF012232B131684D61F2
:101120008A6822F0180222438A6001B0F0BD0022D2
:101130000020062988BF0120072938BF0122002A84
:10114000F3D0EBE70000000010B568B343F20001F4
:1011500004460068C4F20201884206D045F6C71072
:101160007021C0F6000001F0CFFF607F20B90020A1
:101170002077204600F070F802206077207902285E
:1011800006D345F6C7107E21C0F6000001F0BCFF73
:10119000207958B1D4E902122046FFF785FF0028D4
:1011A0001CBF012010BD0BE0012010BD206841F6DE
:1011B000B751C0F2C1414161816821F018018160DD
:1011C0006079022806D345F6C7109021C0F60000CA
:1011D00001F09AFF607908B1206901E04FF0FF301B
:1011E000616922684FEA71110429106106D345F63E
:1011F000C7109C21C0F6000001F086FF2068D4E9EA
:101200000512836842F0800223F06003802A41EADD
:101210000301816006D045F6C710A021C0F600008A
:1012200001F072FF2068226AA1698368013A23F005
:101230008003032A41EA0301816006D345F6C71003
:10124000A521C0F6000001F05FFF012060770020BB
:1012500010BD00000000000081B043F630010068BE
:10126000C4F20201A1F50362904201D001B07047BF
:10127000086840F480500860086800F480500090CE
:10128000009801B0704700002DE9F04F83B004468C
:1012900000F13E4000F1FF700D464FEAB0260B2EE4
:1012A00006D345F65310AA21C0F6000001F02CFF2A
:1012B000288830B945F65310AB21C0F6000001F084
:1012C00023FF6868B0F5881F0ADA12281CD80121AC
:1012D00001FA00F00F21C0F2060108421BD113E011
:1012E000B0F5081F09DAB0F5881F18BFB0F5901FD8
:1012F00011D0B0F5041F0ED006E018BFB0F5441FA2
:1013000009D0B0F5481F06D045F65310AC21C0F601
:10131000000001F0F9FE42F200400A21C4F202008E
:101320004FF0010E84424FF0000A08BF0921092E38
:101330004FF0000B38BF3146002601910AE000BF94
:101340000BF1010B0AF1020ABBF1100F06F10406C2
:1013500000F0C4800EFA0BF9286810EA0908EFD0F3
:10136000686800F00300013801281FD8E8680428E5
:1013700008D345F65310BD21C0F6000001F0C4FEAD
:101380004FF0010E0321A06801FA0AF16A68884350
:10139000E96801FA0AF10843A060C2F3001160682D
:1013A00020EA090001FA0BF108436060686800F068
:1013B0000300032815D0A868032808D345F6531066
:1013C000CE21C0F6000001F09FFE4FF0010E032178
:1013D000E06801FA0AF1AA68884302FA0AF10843B0
:1013E000E060686800F0030002281BD1286910281B
:1013F00008D345F65310DB21C0F6000001F084FE4F
:101400004FF0010E6FF0030006F01C0200EA5B00D3
:101410000F2320449340016A2F69994307FA02F28F
:10142000114301620321206801FA0AF16A688843C6
:1014300002F0030101FA0AF112F4403F40EA010010
:1014400020603FF47DAF43F64401A446C4F202019C
:1014500043F60044C4F201044FF608470868CFF68B
:10146000FF7740F48040086008682BF0030100F427
:10147000804002906018029906F00C010F23C259B7
:101480008B409A43019B03FA01F11143C151A068BB
:10149000696840EA0802CB0258BF20EA080243F616
:1014A0000C478B02C4F20107A260386840EA0802C8
:1014B00058BF20EA08028B033A60606840EA0802DD
:1014C00058BF20EA0802C9036260206840EA0802A7
:1014D00058BF20EA08022260644631E703B0BDE845
:1014E000F08F00000000000070B50C46164605465F
:1014F00071B1022E07D345F653104FF4CC71C0F6EC
:10150000000001F001FE002E08BF2404AC6170BD94
:1015100045F6531040F29711C0F6000001F0F4FDBB
:10152000022EF0D3E7E7000049F67820C2F201006E
:10153000006870470000000040F2040049F678217E
:10154000C2F20000C2F2010100780A68104408608B
:10155000704700000000000080B543F60040C4F270
:101560000200016841F480710160032000F0ACF8D2
:101570000F2000F005F800F02BF8002080BD0000DF
:10158000B0B540F2040140F20002C2F20001C2F222
:1015900000024FF47A73044609781268B3FBF1F144
:1015A000B2FBF1F1084601F06BFB0F2C4FF0010587
:1015B0000CD858B94FF0FF3000222146002500F02A
:1015C0003FF840F20800C2F2000004602846B0BDB7
:1015D00082B043F640000022C4F20200016841F0EC
:1015E00080510160016801F08051019101994168C9
:1015F00041F48041416040680F2100F48040009038
:101600006FF00100009B02B000F01AB8000000006B
:10161000B0F1FF3F0CDD4EF2001300F01F01400956
:10162000CEF20003012202FA01F143F820107047C4
:1016300045F68C10BD21C0F6000001F065BD00002C
:1016400070B51446102A0E46054606D345F68C1092
:10165000A921C0F6000001F057FD102E06D345F673
:101660008C10AA21C0F6000001F04EFD4EF60C5081
:101670004FF0FF33CEF200000168C1F3022181F088
:101680000702042A28BF0422033903FA02F226EAD9
:10169000020205F00F0638BF0021043E002D304441
:1016A00005F1604606F5644603FA01F348BF00F110
:1016B0000C0602FA01F024EA03010843000130702D
:1016C00070BD00000000000010B504460338052876
:1016D00006D345F68C109121C0F6000001F014FDF0
:1016E0004EF60C504FF6FF02CEF20000016811409A
:1016F00064F30A2141F0806141F0FD71016010BD89
:10170000B0B582B043F6400047F20005C4F20200D3
:10171000C4F20005016841F080510160006800F0EA
:10172000805001900198286840F480302860FFF7CD
:10173000FBFE04466868C00306D4FFF7F5FE001BF5
:10174000B0F57A7FF6D910E0286840F400302860C0
:10175000FFF7EAFE044600BF6868800308D4FFF77D
:10176000E3FE001BB0F57A7FF6D9032002B0B0BDCE
:10177000002002B0B0BD000047F20000C4F200003B
:10178000016841F4807101607047000000000000B2
:101790002DE9F04782B04FF6F97104460068C1F6B2
:1017A000FF51084206D145F618107221C0F600001C
:1017B00001F0AAFC207843F69006C4F20206C007A6
:1017C00002D14FF0000A1CE0606B40F40000B0F55D
:1017D000000F06D045F618107821C0F6000001F081
:1017E00093FC56F8880C20F4000046F8880C606BD7
:1017F00056F8881C014346F8881CB0FA80F04FEA7E
:10180000501AA078000702D44FF000081DE0E06BEA
:101810004FEA3050042806D345F618108821C0F648
:10182000000001F071FC56F8040CE16B20F440104C
:10183000B1F5801F40EA010046F8040CB1FA81F0CE
:101840004FEA501808BF4FF0010AA078C0061DD516
:10185000206C4FEAB050042806D345F618109C219E
:10186000C0F6000001F050FC56F8040C216C20F486
:101870004000B1F5800F40EA010008BF4FF0010AB7
:10188000002908BF4FF0010846F8040CD4F8009076
:101890005FEA896040F1758140F2FF21206BC0F260
:1018A0001001884222DC40F2FF21C0F20801884288
:1018B0003BDC40F2FF21C0F20401884266DC40F2CA
:1018C000FF21C0F20201884200F3A680B0F5807FBC
:1018D00000F0FC80B0F5007F00F0F88045F61810AD
:1018E000B721C0F6000001F00FFCEFE040F2FF214D
:1018F000C0F21801884231DC40F2FF21C0F214012D
:10190000884255DC40F2FF21C0F21201884200F308
:101910008E8040F20031C0F21001884200F0D68083
:1019200040F20031C0F21101CDE040F2FF21C0F2DF
:101930000C0188424EDC40F2FF21C0F20A018842CD
:1019400000F3808040F20031C0F20801884200F0CC
:10195000BD8040F20031C0F20901B4E040F2FF2145
:10196000C0F21C01884246DC40F2FF21C0F21A019D
:10197000884272DC40F20031C0F21801884200F067
:10198000A58040F20031C0F219019CE040F2FF2135
:10199000C0F2060188426BDC40F20031C0F2040163
:1019A000884200F0938040F20031C0F205018AE0E5
:1019B00040F2FF21C0F21601884264DC40F200319F
:1019C000C0F21401884200F0818040F20031C0F280
:1019D000150178E040F2FF21C0F20E0188425DDC83
:1019E00040F20031C0F20C0188426FD040F2003169
:1019F000C0F20D0167E040F2FF21C0F21E018842F3
:101A000057DC40F20031C0F21C0188425ED040F247
:101A10000031C0F21D0156E040F20031C0F2020177
:101A2000884253D040F20031C0F203014BE040F253
:101A30000031C0F21201884248D040F20031C0F2B9
:101A4000130140E040F20031C0F20A0188423DD06B
:101A500040F20031C0F20B0135E040F20031C0F23B
:101A60001A01884232D040F20031C0F21B012AE054
:101A700040F20031C0F20601884227D040F2003126
:101A8000C0F207011FE040F20031C0F216018842A7
:101A90001CD040F20031C0F2170114E040F20031D6
:101AA000C0F20E01884211D040F20031C0F20F01A5
:101AB00009E040F20031C0F21E01884206D040F237
:101AC0000031C0F21F0188427FF408AF56F8500C75
:101AD00047F2000740F0805046F8500CC4F200076F
:101AE00056F8500C00F0805001900198386840F48E
:101AF00080703860FFF718FD054600BF3868C005E4
:101B000005D4FFF711FD401B6428F7D909E356F807
:101B1000200C10F440701BD0216B01F440718842FE
:101B200016D056F8200C56F8201C41F4803146F8A7
:101B3000201C56F8201C20F4407021F4803146F817
:101B4000201C46F8200C56F8200CC00740F0CC832F
:101B50004FF6FF43206B56F8882CC0F6FF7300F455
:101B6000407122F4F8120340B1F5407F08BF1A43D8
:101B70006FF31F3046F8882C56F8201C084346F8AF
:101B8000200C2078C00618D5A06B40F08070B0F112
:101B9000807F06D045F61810F121C0F6000001F054
:101BA000B3FA56F8040C20F0807046F8040CA06BD1
:101BB00056F8041C084346F8040C607840060ED51D
:101BC000606E30B1B0F5803F18BFB0F5003F40F017
:101BD00068833068616E20F440300843306060787C
:101BE00000060ED5A06E30B1B0F5802F18BFB0F54D
:101BF000002F40F05E833068A16E20F4402008433F
:101C00003060A078C0070ED0E06E30B1B0F5801F14
:101C100018BFB0F5001F40F055833068E16E20F426
:101C2000401008433060A07880070ED5206F30B197
:101C3000B0F5800F18BFB0F5000F40F04C8330684E
:101C4000216F20F44000084330602078400610D512
:101C5000606C042807D345F6181040F22311C0F633
:101C6000000001F051FA3068616C20F00300084375
:101C700030602078000612D5A06C4FEAB00004282E
:101C800007D345F6181040F22D11C0F6000001F000
:101C90003BFA3068A16C20F00C000843306060789B
:101CA000C00712D0E06C4FEA3010042807D345F685
:101CB000181040F23711C0F6000001F025FA306824
:101CC000E16C20F03000084330606078800712D566
:101CD000206D4FEAB010042807D345F6181040F2E3
:101CE0004111C0F6000001F00FFA3068216D20F0BC
:101CF000C000084330606078400712D5606D4FEA3D
:101D00003020042807D345F6181040F24B11C0F6D6
:101D1000000001F0F9F93068616D20F4407008436B
:101D200030606078000712D5A06D4FEAB02004281B
:101D300007D345F6181040F25511C0F6000001F027
:101D4000E3F93068A16D20F44060084330606078AA
:101D5000C00612D5E06D4FEA3030042807D345F6AF
:101D6000181040F25F11C0F6000001F0CDF93068A4
:101D7000E16D20F44050084330606078800612D551
:101D8000206E4FEAB030042807D345F6181040F211
:101D90006911C0F6000001F0B7F93068216E20F437
:101DA000404008433060A078400613D5A06F40F053
:101DB0008060B0F1806F07D045F6181040F27311C3
:101DC000C0F6000001F0A0F93068A16F20F080603B
:101DD00008433060A078800619D5E06F40F00060BD
:101DE000B0F1006F07D045F6181040F27D11C0F633
:101DF000000001F089F93068E16F20F00060B1F176
:101E0000006F40EA010008BF4FF00108306027680A
:101E1000780312D5606F4FEA3060042807D345F687
:101E2000181040F29511C0F6000001F06DF930680D
:101E3000616F20F0407008433060A078000615D52F
:101E4000D4F8800040F08050B0F1805F07D045F6B4
:101E5000181040F29F11C0F6000001F055F93068EB
:101E6000D4F8801020F0805008433060E0784007BC
:101E700015D5D4F8840040F00050B0F1005F07D0D1
:101E800045F618104FF4D571C0F6000001F03CF98A
:101E90003068D4F8841020F0005008433060E078B7
:101EA000000717D5D4F8880040F00070B0F1007F2B
:101EB00007D045F618104FF4DA71C0F6000001F0B3
:101EC00023F956F8040CD4F8881020F00070084369
:101ED00046F8040CE07809F08075C00617D5D4F8F0
:101EE0008C0040F08060B0F1806F07D045F618108C
:101EF0004FF4DF71C0F6000001F006F956F8040C4B
:101F0000D4F88C1020F08060084346F8040C002DB3
:101F100008BFBAF1000F00F0E78056F8900C20F0EF
:101F2000806046F8900CFFF7FFFA054656F8900CD3
:101F3000000105D5FFF7F8FA401B6428F6D9F0E058
:101F400060683238B0F5BF7F07D945F618104FF4F6
:101F5000ED71C0F6000001F0D7F82078C0071ED060
:101F6000606BE0B9A0680238062807D345F6181060
:101F70004FF4F071C0F6000001F0C6F856F80C0CF2
:101F800056F80C1C00F4403001F07061D4E90123D4
:101F9000084440EA821040EA037046F80C0C2068BE
:101FA000010303D5E16BB1F5801F05D0C00235D523
:101FB000206CB0F5800F31D1E06802380E2807D3CD
:101FC00045F618104FF4F871C0F6000001F09CF8C7
:101FD000606A0138202807D345F618104FF4F971CC
:101FE000C0F6000001F090F856F80C0C56F80C1CE6
:101FF00000F4403001F0E04162680844E16840EAE2
:102000008210636A40EA016046F80C0C56F8040C32
:10201000591E20F01F00084346F8040CE078C00762
:102020001BD02069042807D345F6181040F205217B
:10203000C0F6000001F068F856F80C0C56F80C1CBD
:1020400000F0706001F0E04162682369084440EAF2
:10205000821040EA034046F80C0CE07880072FD548
:102060002069042807D345F618104FF40571C0F60F
:10207000000001F049F8A0680238062807D345F6A9
:10208000181040F21521C0F6000001F03DF8E0689C
:1020900002380E2807D345F6181040F21621C0F674
:1020A000000001F031F86068A368D4E90321090455
:1020B00041EA801040EA026040EA037046F80C0CE6
:1020C00056F8900C40F0806046F8900CFFF72CFA20
:1020D000054600BF56F8900C000109D4FFF724FA1A
:1020E000401B6428F6D91CE0E07880073FF515AF67
:1020F00017F0080008BFB8F1000F00F0CE8056F8C6
:10210000900C20F0805046F8900CFFF70DFA054631
:1021100056F8900C800008D5FFF706FA401B64289B
:10212000F6D9032002B0BDE8F08760693238B0F517
:10213000BF7F07D945F618104FF41171C0F60000A3
:1021400000F0E2FF2068010301D5E16B19B1C00284
:1021500036D5206CA0BBA06902380E2807D345F6FF
:10216000181040F24B21C0F6000000F0CDFFA06A2D
:102170000138202807D345F6181040F24D21C0F64B
:10218000000000F0C1FF56F8080C56F8081C00F4D7
:10219000403001F0E04162690844A16940EA8210E0
:1021A000A36A40EA016046F8080C56F8040C6FF088
:1021B000FF0120F4F85001EB0321084346F8040C1A
:1021C000A07880061FD5E06FB0F1006F1BD1206AA8
:1021D000042807D345F618104FF41871C0F6000014
:1021E00000F092FF56F8080C56F8081C00F07060DA
:1021F00001F0E0416269236A084440EA821040EA43
:10220000034046F8080C2078000731D5E069023811
:10221000062807D345F6181040F26F21C0F60000DB
:1022200000F072FFE06A4FEA3040042807D345F619
:1022300018104FF41C71C0F6000000F065FF56F84E
:10224000080C56F8081C00F0706001F44031626917
:102250000844E16940EA8210E36A40EA017046F806
:10226000080C56F8040C20F44030184346F8040CCF
:1022700056F8900C40F0805046F8900CFFF754F957
:10228000044600BF56F8900C800006D4FFF74CF9C6
:10229000001B6528F6D3032038E0002002B0BDE81B
:1022A000F08745F61810FB21C0F6000000F02CFF67
:1022B0008FE445F6181040F20511C0F6000000F05A
:1022C00023FF98E445F6181040F20F11C0F6000005
:1022D00000F01AFFA1E445F6181040F21911C0F6FB
:1022E000000000F011FFAAE4FFF71EF9054641F2D5
:1022F000883700BF56F8200C80073FF529ACFFF760
:1023000013F9401BB8424FF00300F3D902B0BDE807
:10231000F0870000000000002DE9F041002800F0E7
:10232000D3800446006801380D460F2807D345F6D0
:10233000E00040F2DD21C0F6000000F0E5FE102DC7
:1023400007D345F6E00040F2DE21C0F6000000F0C1
:10235000DBFE43F60808C4F20208D8F8F80300F0E0
:102360000F00A8420DD2D8F8F80320F00F00284340
:10237000C8F8F803D8F8F80300F00F00A84240F0BE
:10238000A380206881071FD5410705D5D8F8001024
:1023900041F4E051C8F80010000705D5D8F8000056
:1023A00040F46040C8F80000A0686FF0070101EB3E
:1023B0003011082980F0E980D8F80000A16820F0E9
:1023C000F0000843C8F800002078C0075AD1D8F8B8
:1023D000F80300F00F00A8420CD9D8F8F80320F059
:1023E0000F002843C8F8F803D8F8F80300F00F00EE
:1023F000A84269D12078400719D5E0686FF0030141
:1024000001EBB02104290AD34FEAB02038B145F6D8
:10241000E00040F24631C0F6000000F075FED8F84A
:102420000000E16820F4E0500843C8F8000020787C
:1024300000071AD520696FF0030101EBB0210429D0
:102440000AD34FEAB02038B145F6E00040F24D31F2
:10245000C0F6000000F058FED8F80000216920F412
:10246000604040EAC100C8F80000D8F8000000F061
:102470000C00082849D004286AD147F64000C0F271
:102480007D1069E06068032807D345F6E00040F25C
:102490000931C0F6000000F037FE6068022808D05D
:1024A00001280DD158F8081C890310D40120BDE87B
:1024B000F08158F8081C890109D40120BDE8F08199
:1024C00058F8081C890702D40120BDE8F081D8F82B
:1024D000001021F003010843C8F80000FFF724F8BA
:1024E000064641F2883700BFD8F80000616800F066
:1024F0000C00B0EB810F3FF46AAFFFF715F8801BBB
:10250000B842F1D90320BDE8F08158F8042C58F8FE
:10251000040C400247F6400058F8041CC0F27D103D
:102520005CBF42F20040C0F2F400C1F3881102F037
:102530003F02A0FB01010023FDF7D6FE58F8041C62
:102540000222C1F3014102EB4101B0FBF1F003E0D3
:1025500042F20040C0F2F400D8F8001045F28A724E
:10256000C0F60002C1F30311515C40F20802C2F24E
:102570000002C84040F20001C2F200010860106889
:10258000FEF7FEFF0020BDE8F0814FEA3010002882
:102590003FF412AF45F6E00040F20231C0F6000011
:1025A00000F0B2FD08E700002DE9F04182B00028FC
:1025B00000F0E48004460068102807D345F6E000E8
:1025C00040F26311C0F6000000F09EFD207843F653
:1025D0000006C4F20206C00754D0606868B1B0F5C6
:1025E000803F18BFB0F5A02F07D045F6E00040F2BD
:1025F0006911C0F6000000F087FDB06800F00C0023
:10260000042805D1306880033CD56068D0BBB5E0B4
:10261000B06800F00C00082802D170684002F1D4C4
:1026200065682DB1B5F5A02F0AD0B5F5803F0BD068
:10263000306820F480303060306820F4802006E07C
:10264000306840F480203060306840F48030306082
:10265000FEF76AFF002D054611D000BF30688003E9
:1026600010D4FEF761FF401B6428F7D9B8E100BF22
:10267000FEF75AFF401B64284FF003007BD83068F8
:102680008003F5D42078800730D5E068022807D38E
:1026900045F6E00040F29B11C0F6000000F034FD6A
:1026A0002069202807D345F6E0004FF4CE71C0F62C
:1026B000000000F029FDB06810F00C0F09D0B068E0
:1026C00000F00C00082840F0B2807068400200F171
:1026D000AE803068800702D5E06801284ED13068AE
:1026E000216920F0F80040EAC1003060207800073E
:1026F00048D42078400764D4A069032807D345F65E
:10270000E00040F24A21C0F6000000F0FDFCA069A4
:1027100080B3B16801F00C01082940F0BD800128A8
:1027200070682BD000F48001E269914226D100F05C
:102730003F01226A914221D147F6C071626A01408D
:10274000B1EB821F1AD1A16A4FF6FF72C903914300
:1027500000F44032A1F580318A420FD1E16A00F0E5
:102760007062B2EB016F09D1216B00F0E040B0EB79
:10277000017F03D1002002B0BDE8F081012002B04A
:10278000BDE8F0816069022807D345F6E0004FF408
:10279000EE71C0F6000000F0B7FC60690028706FB1
:1027A0006AD040F001007067FEF7BEFE054600BF2C
:1027B000706F80079DD4FEF7B7FE401B0228F7D943
:1027C0000EE1A068052805D8012101FA00F010F0FB
:1027D000230F07D145F6E00040F20621C0F60000C5
:1027E00000F092FC306C10F0805808D1306C40F052
:1027F00080503064306C00F080500190019847F2B6
:102800000007C4F200073868C00525D4386840F4D2
:1028100080703860FEF788FE054600BF3868C00546
:102820001AD4FEF781FE401B6428F7D9D8E0E0688F
:102830000028306800F0958040F001003060FEF71D
:1028400073FE0546306880073FF549AFFEF76CFE22
:10285000401B0228F6D9C3E0A5682DB1052D00F074
:10286000A780012D00F0A880306F20F001003067B4
:10287000306F20F00400A2E020F001007067FEF746
:1028800053FE0546706F80077FF533AFFEF74CFEB1
:10289000401B0228F6D9A3E0022875D1E06940F474
:1028A0008000B0F5800F07D045F6E00040F25321DC
:1028B000C0F6000000F028FC206A02383E2807D34A
:1028C00045F6E0004FF41571C0F6000000F01CFC66
:1028D000606A3238B0F5BF7F07D945F6E00040F2B4
:1028E0005521C0F6000000F00FFCA06A082805D8AA
:1028F000012101FA00F010F4AA7F07D145F6E000AB
:1029000040F25621C0F6000000F0FEFBE06A0238FB
:102910000E2807D345F6E00040F25721C0F600002C
:1029200000F0F2FB206B0238062807D345F6E000E2
:1029300040F25921C0F6000000F0E6FB306820F0BC
:1029400080703060FEF7F0FD054600BF3068800102
:102950005ED5FEF7E9FD401B02284FF00300F5D9D4
:1029600009E720F001003060FEF7DEFD054600BFFC
:10297000306880077FF5BAAEFEF7D6FD401B02280F
:102980004FF00300F4D9F6E6306820F08070306034
:10299000FEF7CAFD044600BF306880017FF5EAAE4D
:1029A000FEF7C2FD001B02284FF00300F4D9E2E657
:1029B000306F40F004003067306F40F00100306746
:1029C000FEF7B2FD002D054641F2883714D000BF56
:1029D000306F800713D4FEF7A7FD401BB842F7D92C
:1029E000032002B0BDE8F081FEF79EFD401BB84217
:1029F0004FF003003FF6BFAE306F8007F4D4B8F15C
:102A0000000F7FF479AE306C20F08050306473E6B4
:102A100004F11C07256B8FCF0843D9034FF6FF73D2
:102A200040EA8210994340EA0760A1F580310843EB
:102A300040EA05707060306840F080703060FEF7EA
:102A400073FD0446306880013FF594AEFEF76CFDDF
:102A5000001B02284FF00300F4D98CE600000000B0
:102A6000F0B581B0002800F08C8042F600010446E9
:102A70000068C4F20001884207D045F63A2040F2CF
:102A80000911C0F6000000F03FFB606840F0400014
:102A9000402807D045F63A204FF48571C0F6000073
:102AA00000F032FBA068802807D345F63A2040F2B8
:102AB0000B11C0F6000000F027FBE068B0F5004FF6
:102AC00007D345F63A204FF48671C0F6000000F0B7
:102AD0001BFB20694FEA7050042807D345F63A20C3
:102AE00040F20D11C0F6000000F00EFB606940F4EA
:102AF0008010B0F5801F07D045F63A204FF487715B
:102B0000C0F6000000F000FBA06940F008000828B3
:102B100007D045F63A2040F20F11C0F6000000F051
:102B2000F3FA607F20B900202077204600F080F87B
:102B3000022060772068C168C90624D4CA21416296
:102B400053214162C168490621D4C16841F0800126
:102B5000C160FEF7E9FC2168C96849064BD4054607
:102B600000260427FEF7E0FC401BB0F57A7F01D970
:102B7000012667772068C068400609D4012EF1D18C
:102B800006E001264BE00026002E48D145E0002655
:102B9000AEBB94E80F004FF6BF768768CFF68F760E
:102BA0003740876027693943676939438768394304
:102BB00081600361016941EA02410161C16821F05C
:102BC0008001C1608168890618D4C16821F0A00124
:102BD000C160FEF7A9FC05462068C068800621D4C4
:102BE000FEF7A2FC401BB0F57A7FF5D90126042040
:102BF000607776B904E000260EB9CAE7002646B928
:102C00002068A169C26C22F00802C264C26C114340
:102C1000C1642068FF2141620EB901206077F0B2E3
:102C200001B0F0BD0026002EF3D1E9E7000000005E
:102C300010B5A4B0044668469021FDF780FC42F62A
:102C400000012068C4F20001884201D024B010BD08
:102C5000202000904FF480700C906846FEF798FD9D
:102C600008B1FDF7B5FD43F67000C4F2020001683B
:102C700041F40041016024B010BD000000000000DC
:102C8000411E0020B0EB116F01D0012070474EF2C1
:102C90001002F023CEF2000251604EF62351CEF224
:102CA00000010B7007219060116070470000000068
:102CB000FEE700000000000080B540F2804046F2D0
:102CC0000041C2F20000C4F200014FF4A0220160F2
:102CD0001B2141600021C0E90211C0E9042181618A
:102CE0008183FEF709F8002808BF80BDBDE8804059
:102CF000FDF76EBD0000000080B540F2A84043F231
:102D00000001C2F20000C4F20201016000218180D2
:102D1000C0E9051101210162FEF716FA002808BF7B
:102D200080BDBDE88040FDF753BD000000000000FD
:102D300080B545F61400C0F6000000F0E1FA40F25C
:102D4000F841C2F20001086045F62400C0F6000018
:102D500000F0D6FA40F2FC4145F2E472C2F2000102
:102D6000C0F6000208600120012100F029FB40F2BA
:102D7000EC4145F2F472C2F20001C0F600020860B4
:102D80000220022100F01CFB40F2F04145F6340322
:102D9000C2F20001C0F600030022086040F2817018
:102DA000C0F60000012100F00FFC40F2005145F296
:102DB0009C72C2F20001C0F60002086042F6D970AF
:102DC000C0F60000002100F07FFB40F21C2145F21C
:102DD000C072C2F20001C0F60002086042F68970BB
:102DE000C0F60000002100F06FFB40F22021C2F28B
:102DF0000001086045F60400C0F6000000F000FA8B
:102E000040F2F441C2F20001086080BD0000000001
:102E100070B586B000200590CDE90300CDE9010032
:102E200043F6300040F20044C4F20200C4F202044F
:102E3000012203250168012641F0040101600168B7
:102E400001F0040100910099016841F080010160E6
:102E5000016801F0800100910099016841F00201D0
:102E60000160016801F0020100910099016841F0E0
:102E7000010101600068032100F00100009000984A
:102E80002046FEF731FB01A92046CDE90156CDE9E8
:102E90000366FEF7F9F906B070BD000000000000FF
:102EA00080B540F2CC4042F60001C2F20000C4F20C
:102EB00000017F220160002141608260FF22C0E9A1
:102EC0000321C0E90511FFF7CBFD002808BF80BD35
:102ED000BDE88040FDF77CBCFEE70000000000007C
:102EE000FEE70000000000000000000000000000FD
:102EF000EFF30980BFF36F8F154B1A681EF0100FA8
:102F000008BF20ED108A20E9F04F10602DE909007C
:102F10004FF0500072B680F31188BFF34F8FBFF3AC
:102F20006F8F62B601F050FB4FF0000080F3118804
:102F3000BDE8090019680868B0E8F04F1EF0100FEE
:102F400008BFB0EC108A80F30988BFF36F8F704719
:102F5000F805002000000000000000000000000054
:102F6000074B19680868B0E8F04F80F30988BFF391
:102F70006F8F4FF0000080F31188704700BF00BFD3
:102F8000F8050020000000008AB0FDF7FDFB40F2CC
:102F900023100490002040F28044CDE90600082070
:102FA000089040F20120C2F20004C0F203400290F7
:102FB00040F2056004AD02AE01AFC0F60700039019
:102FC0002046294632463B46FDF72EFC0A2000F0FB
:102FD000F3F8F5E7000000000A2000F0EDF8FBE749
:102FE00080B5FEF7A9FA02F0E7F8012808BF80BD16
:102FF000BDE8804001F0FCBB10B594B007AC3421B3
:103000002046FDF79CFA00200690CDE90400CDE9AA
:103010000200FEF7B1FB43F64000C4F20200016B70
:1030200021F018010163016841F0805101600068DE
:1030300000F08050019047F200000199C4F20000B6
:10304000016841F44041016000684FF4800100F4E0
:10305000404001900198052007904FF4803008907F
:103060000120099002200D900E9119210F914FF42B
:10307000D871CDE91010CDE912002046FFF794FA7F
:1030800018B1EFF3108072B6FEE7FEF739FB20B1FE
:10309000EFF3108072B600BFFEE70F20029002200F
:1030A0000390002004904FF4A05005904FF48050FE
:1030B000069002A80721FFF72FF920B1EFF3108047
:1030C00072B600BFFEE714B010BD000000000000A3
:1030D0004EF68850CEF20000016841F470010160A4
:1030E000704700000000000080B500F071FF00286C
:1030F00008BF80BDD0E90010BDE88040084700004F
:10310000FEE7000000000000704700000000000023
:103110004EF614500021CEF2000043F6E07CBFF3DF
:103120004F8FBFF36F8FC0F83C12BFF34F8FBFF3C9
:103130006F8F026842F400320260BFF34F8FBFF31B
:103140006F8F0167BFF34F8FC26EC2F34E31C2F370
:10315000C903D20803F1010E930700BF0CEA411224
:103160001C46754644EA0206013D04F14044C0F89D
:103170004C62F7D10029A1F10101EFD1BFF34F8FCC
:10318000016841F480310160BFF34F8FBFF36F8F4F
:10319000FEF7E2F9FFF730FFFFF73AFEFFF7ACFD6D
:1031A000FFF77EFEFFF788FD00F05AF8FFF7C0FD3D
:1031B00000F07EF8FEE7000080B5EFF3058111B165
:1031C0006FF0050080BDEFF3108139B140F210219E
:1031D000C2F20001096802290DD1F1E7EFF3118174
:1031E00049B140F21021C2F200010968022904BF6E
:1031F0006FF0050080BD08B101F0CEF8002080BD61
:10320000EFF3058161B9EFF3108111B9EFF311818B
:1032100041B140F21021C2F200010968022901D136
:103220000020704778B1836843B1C16800221F292C
:103230004FF0000188BF012207D833B9C168B1FA45
:1032400081F1490900E00121002212B1806801F0FA
:1032500027BA0029E4D001F013BA000000000000F2
:10326000EFF3058010B16FF005007047EFF31080A9
:10327000002840F21020C2F2000003D001680229A9
:10328000F1D008E0EFF3118129B10168022904BFF0
:103290006FF005007047016800291CBF4FF0FF3038
:1032A000704701210160002070470000000000000D
:1032B00080B5EFF3058010B16FF0050080BDEFF32E
:1032C0001080002840F21020C2F2000003D00168F4
:1032D0000229F1D008E0EFF3118129B10168022938
:1032E00004BF6FF0050080BD0168012905D10221EE
:1032F000016001F009F9002080BD4FF0FF3080BD72
:1033000070B5EFF3058109B1002070BD0446EFF3FD
:10331000108038B140F21020C2F20000006802288C
:10332000F2D00BE0EFF3118040B140F21020C2F276
:1033300000000068022804BF002070BD1CB1606856
:103340000107E1D402E000200107DDD47CB1A368CD
:1033500043B1E16800224F294FF0000188BF0122EC
:1033600007D833B9E168B1FA81F1490900E00121D8
:10337000002200F001062AB1A1683EB9012001F047
:10338000BBFA0CE031B13EB9012006E0042001F0A7
:10339000B3FA04E0002503E0042001F099FA0546A1
:1033A00055B10CB1216800E00021284600F094FFDF
:1033B000002E18BF45F00105284670BD0000000032
:1033C00070B582B0EFF305831BB10026304602B022
:1033D00070BD14460D46EFF3108169B185424FF080
:1033E0000006F3D80028F1D040F21021C2F200010B
:1033F0000968022916D1E9E7EFF31181002918BF06
:10340000012185424FF00006E0D80028DED040F2CE
:103410001022C2F200021268023AB2FA82F2520993
:103420001140D3D194B1A3685BB1E66800210022BA
:103430004F2E88BF0122502E38BF01214F2E07D8B2
:1034400033B9E168002918BF012100E00021002202
:1034500009B10026BAE7012809D172B1A368012099
:10346000002100220326009601F0EAFA0AE0DAB110
:10347000A268294601F000FA19E001200021032288
:1034800001F092FA0646002D18BF002E10D0002140
:1034900000220023304601F04BFB012808D03046C3
:1034A00000F02EFF002603E0294601F0BDF9064694
:1034B00016B11CB1216802E0002687E700213046E2
:1034C00000F00AFF82E7000070B584B00023039388
:1034D000EFF3058313B1039804B070BD0B46EFF30F
:1034E000108149B10028F6D040F21021C2F200014B
:1034F0000968022912D1EEE7EFF31181002918BF04
:1035000001210028E7D040F21025C2F200052D6805
:10351000023DB5FA85F56D092940DCD142B3D2F8F8
:1035200018E0BEF1000F08BF4FF0180EBEF1380FC3
:103530001BD81179C90718D1556994684FEA950CC1
:10354000002D08BF4FF0400C116844B1D6685C2EC6
:1035500004D31669002E18BF002D20D10CB9D468F1
:10356000C4B1002500245DB91DE0002004B070BD89
:10357000012400214FF0180E4FF0400C002595B1AA
:10358000946812690294CDE900E2624601F090FD70
:103590000390A0E71469B4FA84F46409EEE7002408
:1035A0000125002DECD1002C3FF495AF1FFA8CF2D1
:1035B000CDF800E003AE019601F006FD01283FF4CE
:1035C0008AAF0020E4E70000F0B583B0EFF3058791
:1035D00017B1002003B0F0BD1D4616460C46074645
:1035E000EFF3108048B1002FF3D040F21020C2F268
:1035F00000000068022812D1EBE7EFF311800028E9
:1036000018BF0120002FE4D040F21021C2F20001C7
:1036100009680239B1FA81F149090840D9D1082075
:1036200000F0F6FB0028D4D003460760002C18BF3A
:103630000124466085B1AF68286847B1E968002277
:103640002B294FF0000188BF012208D83FB9E96853
:10365000B1FA81F1490901E001210020002262B1A3
:1036600043F2E901AA68C0F600010091012101922C
:10367000224601F0EDFF03B0F0BD0029A9D043F2CE
:10368000E9020121C0F600020092224601F0A8FFE3
:1036900003B0F0BD00000000F0B581B049F68432FF
:1036A00040F2F856C2F20102C2F2000600230446BC
:1036B000176832680D4682F85A303268101D00F0E3
:1036C000B7FC601C0BD155B13068011D49F65C3068
:1036D000C2F2010001B0BDE8F04000F015BD306855
:1036E000E41944600BD340F20860C2F200000068A5
:1036F0003168043101B0BDE8F04000F0E5BC40F2B3
:103700000060C2F2000000683168043100F0DCFCA7
:1037100049F6F420C2F2010001688C4238BF04600F
:1037200001B0F0BD000000002DE9F047044600F0B4
:1037300007FD49F67C2040F2F857C2F20100C2F2C0
:10374000000749F6503A40F210660168C2F2010AD9
:10375000013101603968C2F2000651B1DAF80000A7
:1037600000283ED13868E16AC06A884298BF3C6050
:1037700037E03C600068012833D10025701900F063
:1037800093FC1435B5F58C6FF8D149F6C028C2F218
:103790000108404600F088FC49F6D429C2F201092C
:1037A000484600F081FC49F6FC20C2F2010000F01E
:1037B0007BFC49F67030C2F2010000F075FC49F65E
:1037C0005C30C2F2010000F06FFC40F20060C2F217
:1037D0000000C0F8008040F20860C2F20000C0F8AB
:1037E000009049F68C20C2F20100016801310160AD
:1037F000616449F69021C2F20101E06A0A689042D0
:1038000088BF086000EB8000211D06EB800000F0FF
:103810007BFC00F0C1FCDAF8000088B13868E16A8E
:10382000C06A884228BFBDE8F0874EF604504FF0CA
:103830008051CEF200000160BFF34F8FBFF36F8F56
:10384000BDE8F0870000000070B582B000F078FCA1
:1038500049F68836C2F20106306850BB49F6942416
:10386000C2F20104204600F01FFC49F6A825C2F26E
:103870000105284600F018FC40F2FC5040F20452CA
:10388000C2F2000040F2A453C2F20002C2F20003EE
:10389000046040F20C60C2F20000102105600A20B2
:1038A0000025009501F0CCF8306010B103A100F0C4
:1038B00013FD02B0BDE8704000F06EBC546D725153
:1038C000000000000000000049F6802540F2106A68
:1038D0004EF6045849F6703749F67C26C2F20105C7
:1038E000C2F2000ACEF200084FF08059C2F201077E
:1038F000C2F2010603E000BF204600F069FC286820
:10390000C8B100F01DFCF868C468201D00F090FBF1
:1039100030680138306028680138286000F03CFCCD
:1039200094F859000228EAD00128E5D070B9206B3C
:1039300000F04EFCE0E7DAF800000228DFD3C8F818
:103940000090BFF34F8FBFF36F8FD8E74FF0500059
:1039500072B680F31188BFF36F8FBFF34F8F62B6DB
:10396000FEE700000000000008480068006880F3DF
:1039700008884FF0000080F3148862B661B6BFF388
:103980004F8FBFF36F8F00DF00BF000008ED00E036
:103990002DE9F04F85B0824601F022FC40F2F45947
:1039A0000546C2F20009D9F8001088424BD240F215
:1039B000FC54C2F2000420680168002945D049F691
:1039C000883BC2F2010B09E07860206831463F6114
:1039D00000F07AFB20680168002936D0C068C7680B
:1039E000D0F800803E1D304600F022FB396A384690
:1039F000884797F828004007ECD5B869404440450F
:103A0000E2D897B3DBF8000078B100200397CDE946
:103A1000010801F0D1FBDBF800000022002301A91E
:103A200001F086F80028D5D102E000200028D1D18D
:103A30004FF0500072B680F31188BFF36F8FBFF361
:103A40004F8F62B6FEE7002007E040F20C61C2F241
:103A500000010A68086001202260CAF800002846B8
:103A6000C9F8005005B0BDE8F08F4FF0500072B6B5
:103A700080F31188BFF36F8FBFF34F8F62B600BF23
:103A8000FEE700000000000081B00020009040F23E
:103A90000C00C2F2000000684FF0500172B681F3D2
:103AA0001188BFF36F8FBFF34F8F62B6013001D023
:103AB000FEE700BF00980028FCD001B0704700006E
:103AC0008AB040F2FC5A40F20C6949F68838C2F2DA
:103AD000000A02ACC2F20009C2F2010801AE00BF46
:103AE000DAF8000007681FB1C068D0F800B001E044
:103AF0004FF0000B00F060FD2046FFF749FF0299F0
:103B000011B101F0CDFC7DE00546AFB15D4513D3A9
:103B100001F0C6FCDAF80000C068C76807F10409C4
:103B2000484600F085FA97F82800410707D400F0CE
:103B3000FE0087F8280012E0B7B100221AE0B96948
:103B40003F6101EB0B007860A84229D95D4501D2A5
:103B5000584533D2DAF80000494600F0B5FA40F291
:103B60000C69C2F2000945E0D9F800000068B0FA1B
:103B700080F04209D8F80000ABEB050100F0E8FB4B
:103B800001F08EFC00283DD14EF604504FF08051DC
:103B9000CEF200000160BFF34F8FBFF36F8F31E0B3
:103BA000A5EB0B00884209D240F20C624946C2F2F2
:103BB00000029146106800F087FA1BE0002F00F029
:103BC000CC80D8F8000068B100200897CDE9060B3A
:103BD00001F0F2FAD8F800000022002306A900F054
:103BE000A7FF00E0002040F20C690028C2F20009A3
:103BF00000F0BF80396A3846884703E0D9F80000F2
:103C000000F062FAD8F800000022214601F0A4F882
:103C100000283FF465AF0298B0F1FF3F03DCDDE917
:103C200003200599904702980028EBD4049F7869F7
:103C300010B1381D00F0FCF93046FFF7A9FE0299DB
:103C40000929DFD8DFE801F00505053B3E540505ED
:103C50003B3E97F82810039ABD693F6141F001018E
:103C600087F82810AB183946834241F8043F04D93D
:103C7000904238D2934203D235E0801AA842BDD395
:103C8000396A3846884797F828004007BAD5002F88
:103C900057D0D8F80000C0B30398B9690022069243
:103CA0000844CDE9070701F087FAD8F800000022A0
:103CB000002306A900F03CFF0028A3D129E097F8D3
:103CC00028001DE097F8281041F00102039987F8B9
:103CD0002820B96149B30A18394682423F6141F848
:103CE000042F7FF68BAFDAF8000000F0EDF989E7DA
:103CF00097F82800810703D4384600F069FA81E775
:103D000000F0FE0087F828007CE7002000287FF400
:103D100079AF4FF0500072B680F31188BFF36F8F08
:103D2000BFF34F8F62B600BFFEE74FF0500072B690
:103D300080F31188BFF36F8FBFF34F8F62B600BF60
:103D4000FEE74FF0500072B680F31188BFF36F8F1B
:103D5000BFF34F8F62B600BFFEE74FF0500072B660
:103D600080F31188BFF36F8FBFF34F8F62B600BF30
:103D7000FEE74FF0500072B680F31188BFF36F8FEB
:103D8000BFF34F8F62B600BFFEE7000000000000E7
:103D9000F0B581B0044600F0D3F994F94560012EE6
:103DA00010DB04F1240503E070B2013E012809DDB7
:103DB000286838B1284601F027FB0028F4D000F02D
:103DC00057FBF1E7FF2684F8456000F0E5F900F0C5
:103DD000B7F994F94470012F10DB04F1100503E0EA
:103DE00078B2013F012809DD286838B1284601F082
:103DF0000BFB0028F4D000F03BFBF1E784F84460B3
:103E000001B0BDE8F04000F0C7B9000000000000BC
:103E1000F0B581B0044600F0CFFB40F2046149F6F2
:103E2000BC25C2F20001C2F20105086880BB40F661
:103E30007020C2F20000C21D10F0070322F007023A
:103E4000A0EB020618BF10464FF4C832002B18BF73
:103E500006F5C83249F654330026C2F20103024483
:103E600022F0070218605E60A2F108030B6042E9CD
:103E700002661A1AC0E9003249F6F020C2F20100C7
:103E8000026049F6E820C2F20100026001202870B9
:103E90002878002818BF4FF0004020420FD000249F
:103EA00001F0FEFA600712D04FF0500072B680F3B6
:103EB0001188BFF36F8FBFF34F8F62B6FEE74CB12F
:103EC000600709D024F0070000F1100306E0204647
:103ED00001B0F0BD002301E004F10803002B4FF016
:103EE0000004DDD049F6E82CC2F2010CDCF8000039
:103EF0008342D5D849F65434C2F20104266870686A
:103F000098420ED2326842B1506834461646984202
:103F100007D23268002AF7D103E049F65434C2F2DE
:103F200001040A689642BAD0C01AD4F800E01128F9
:103F30003268226031D3F41862070AD04FF0500083
:103F400072B680F31188BFF36F8FBFF34F8F62B6E5
:103F5000FEE76060736049F65433C2F2010300BFAC
:103F600018461B68A342FBD342688718A74203D1B7
:103F700064682244044642606268A7189F4201D0E8
:103F8000194606E009688B4203D0D3E900131A44AE
:103F90006260A042216018BF046049F6F020716899
:103FA000C2F20100DCF80020511ACCF800100268BF
:103FB0000EF10804914238BF01602878716800282A
:103FC0004FF0000018BF41F00041C6E9000167E76B
:103FD00010B538B1044600F0B3F8E46900F0DCF83D
:103FE000204610BD4FF0500072B680F31188BFF329
:103FF0006F8FBFF34F8F62B6FEE700000000000036
:1040000043F6892321F00101C0F6000340F80C3C7F
:104010004FF0807340F8202C40E902136FF002014A
:1040200040F8241CA0F1440108467047000000003D
:10403000D0E9013201699A60D0F808C04A6882422A
:104040004FF00002CCF8043008BFC1F804C0026190
:104050000868013808600868704700000000000028
:1040600040F2B413C2F20003036040F2B400C2F2A3
:104070000000086040201060704700000000000051
:1040800040F22443C2F20003036040F22420C2F253
:1040900000000860802010607047000000000000F1
:1040A000704700000000000002464FF0FF3142F868
:1040B000081F00214260C0E9032201607047000030
:1040C000002101617047000080B5D1F800C01CF1EB
:1040D000010207D000F108039E465B681A6862453A
:1040E000FAD901E0D0F810E0DEF804204A60CEF8FA
:1040F00004109160C1F808E00861016801310160B5
:1041000080BD000000000000D0F800C043684B6094
:104110009A688A609A689960086151600CF101019F
:104120000160704700000000DFF80C00016841F4F6
:10413000700101607047000088ED00E000000000A1
:104140004FF0500072B680F31188BFF36F8FBFF34A
:104150004F8F62B640F20C00C2F2000001680029E5
:1041600001F10101016000D070474EF60450CEF21B
:1041700000000068000608BF70474FF0500072B69C
:1041800080F31188BFF36F8FBFF34F8F62B600BF0C
:10419000FEE700000000000040F20C00C2F2000048
:1041A000016839B10139016018BF7047002080F300
:1041B000118870474FF0500072B680F31188BFF33A
:1041C0006F8FBFF34F8F62B6FEE700000000000064
:1041D000B0B5002808BFB0BD044649F6BC20C2F205
:1041E00001000078002818BF4FF0004054F8041C6C
:1041F00008420ED0A4F108052A68B2B14FF0500071
:1042000072B680F31188BFF36F8FBFF34F8F62B622
:10421000FEE74FF0500072B680F31188BFF36F8F46
:10422000BFF34F8F62B600BFFEE721EA000044F8FB
:10423000040C00F0C1F949F6E82054F8041CC2F25D
:10424000010002681144016049F65431C2F20101D3
:1042500008460968A942FBD342688318AB4204D1DF
:1042600054F8043C05461A4442606B68EA188A42D6
:1042700001D00A460AE040F20462C2F2000212686B
:10428000914203D0D1E9002119446960A8422A6013
:1042900018BF0560BDE8B04001F002B900000000A1
:1042A0004EF210000021CEF2000044F6D352C1F2CB
:1042B00062020160816040F20001C2F200010968FF
:1042C000A1FB02124FF0FF3101EB92114160072177
:1042D000016070470000000049F6103C0022C2F265
:1042E000010C00BF5CF832301BB10132082AF9D151
:1042F00070470CEBC2034CF8321058607047000056
:1043000068B149F6103C0021C2F2010C0CEBC1036C
:104310005A6882420FD001310829F7D10FE04FF0DF
:10432000500072B680F31188BFF36F8FBFF34F8FC9
:1043300062B600BFFEE700224CF831205A6090F8C8
:104340004610002918BF7047FFF742BF0000000069
:1043500070B515460E460446FFF7F2FE94F8440089
:10436000FF2802D1002084F8440094F84500FF287B
:1043700002D1002084F84500FFF70EFFA06B28B99A
:1043800004F1240031462A4600F09AF82046BDE8A0
:104390007040FFF7FDBC000070B5002849D004460E
:1043A00049F68820C2F20100016851B14FF0500077
:1043B00072B680F31188BFF36F8FBFF34F8F62B671
:1043C000FEE7016840F2F8550131016049F684309A
:1043D000C2F20005C2F2010000210668286880F8D8
:1043E0005A1028680430FFF723FE2868A419446097
:1043F00009D340F20860C2F2000000682968043165
:10440000FFF762FE10E040F20060C2F200000068B8
:1044100029680431FFF758FE49F6F420C2F2010082
:1044200001688C4238BF046001F03AF8002818BFD8
:1044300070BD4EF604504FF08051CEF20000016086
:10444000BFF34F8FBFF36F8F70BD000000000000FF
:1044500049F6F821C2F201010968016049F6843188
:10446000C2F20101096841607047000000000000CD
:1044700049F690300121C2F201000160704700004E
:1044800010B570B10C4640F2F851C2F20001096853
:104490001831FFF719FE01212046BDE81040FFF753
:1044A000FBB84FF0500072B680F31188BFF36F8FE6
:1044B000BFF34F8F62B600BFFEE7000000000000B0
:1044C000B0B598B10D4640F2F851C2F20001144661
:1044D00009681831FFF718FE002C214618BF4FF06D
:1044E000FF352846BDE8B040FFF7D6B84FF0500082
:1044F00072B680F31188BFF36F8FBFF34F8F62B630
:10450000FEE700000000000010B586B005A804A971
:1045100003AA0024CDE90444FFF7A2FDDDE903204E
:1045200005990023CDE9010143F6C9001FA1C0F69A
:104530000000009400F0BCFD49F6EC21C2F201013C
:10454000086010B101F0D8F80446601C22D0012C9C
:104550001ED14FF0500072B680F31188BFF36F8FF9
:10456000BFF34F8F62B649F6F420C2F201004FF05C
:10457000FF31016049F65030C2F2010001210160B3
:1045800049F68430C2F201000021016000F0B4F865
:1045900006B010BD4FF0500072B680F31188BFF323
:1045A0006F8FBFF34F8F62B6FEE700BF49444C45A3
:1045B000000000000000000049F68820C2F201005F
:1045C000016801310160704710B549F68820C2F2D8
:1045D0000100006830B149F690300121C2F20100BB
:1045E000016010BD49F6903040F2F854C2F201006B
:1045F000C2F2000400210160206800682168096B94
:10460000884204D8206821683431FFF749FD49F613
:10461000902C40F21062C2F2010CC2F20002DCF8EF
:10462000001001EB810352F8230048B902EB83002C
:10463000A0F11403B9B153F8140901390028F9D0D5
:1046400001EB810002EB800252F8040F4368101D59
:104650008342136001D1586810601068C068206000
:10466000CCF8001010BD4FF0500072B680F31188E6
:10467000BFF36F8FBFF34F8F62B600BFFEE700003E
:10468000B0B52020FFF7C4FB044628B1201D00254B
:104690002560FFF709FD25772046B0BD000000002A
:1046A00010B582B078B104462020019001982028EE
:1046B00015D100202060201DFFF7F6FC0120207797
:1046C000204602B010BD4FF0500072B680F3118842
:1046D000BFF36F8FBFF34F8F62B600BFFEE74FF09F
:1046E000500072B680F31188BFF36F8FBFF34F8F06
:1046F00062B600BFFEE70000B0B584B04EF20040E5
:1047000049F67022CEF20000C2F201020178029155
:10471000FF21017001788DF807109DF8071001F056
:104720005001117049F674210722C2F201010A609A
:104730009DF90720B2F1FF3F0BDC06220A60013A27
:104740009DF807305B008DF807309DF90730002B8E
:10475000F4D40A68032A3FD14FF4E06303EA02224B
:104760000A6002990170D0F8201941F47001C0F874
:104770002019D0F8201941F07041C0F82019FFF736
:104780008FFD40F20C040025C2F200042560FFF703
:10479000CBFC4EF63470CEF20000016841F040418F
:1047A0000160FFF7E1F8FFF70FFF039520684FF076
:1047B000500172B681F31188BFF36F8FBFF34F8F33
:1047C00062B6013002D000BFFEE700BF03980028A8
:1047D000FCD0002004B0B0BD4FF0500072B680F3A2
:1047E0001188BFF36F8FBFF34F8F62B6FEE70000F3
:1047F00080B54FF0500072B680F31188BFF36F8F11
:10480000BFF34F8F62B600F0F3FC30B14EF60450A8
:104810004FF08051CEF200000160002080F311883B
:1048200080BD00000000000010B570B10C46814250
:1048300017D94FF0500072B680F31188BFF36F8F15
:10484000BFF34F8F62B600BFFEE74FF0500072B665
:1048500080F31188BFF36F8FBFF34F8F62B600BF35
:10486000FEE70021022200F09FF8002818BF8463B1
:1048700010BD000000000000B0B582B068B10D4668
:10488000814216D94FF0500072B680F31188BFF301
:104890006F8FBFF34F8F62B6FEE74FF0500072B6D6
:1048A00080F31188BFF36F8FBFF34F8F62B600BFE5
:1048B000FEE714460021002202230093234600F065
:1048C000BFF8002C204618BFA56302B0B0BD0000A1
:1048D000B0B5024601200021002500F065F804462D
:1048E00040B100210022002320462560C4E9025582
:1048F00000F01EF92046B0BD70B582B0C9B30546C0
:1049000050200190019850283FD10C460198012079
:1049100081F8460009600026C8630E64FFF710FCAA
:10492000D4E90F012268A66301FB0023013800FBD4
:1049300001206260C4E90230FF2084F8440084F85A
:10494000450004F11000FFF7AFFB04F12400FFF76E
:10495000ABFBFFF721FC002100220023204684F856
:104960004C502660C4E9026600F0E2F8204602B02E
:1049700070BD4FF0500072B680F31188BFF36F8F97
:10498000BFF34F8F62B600BFFEE74FF0500072B624
:1049900080F31188BFF36F8FBFF34F8F62B600BFF4
:1049A000FEE70000000000002DE9F041C8B3064614
:1049B000484314460F465030002908BF5020FFF7E7
:1049C00027FA054650B328464FF00008002F85F817
:1049D000468018BF5030C5E90F672860FFF7B0FB6D
:1049E000D5E90F012A68C5F8388001FB002301389A
:1049F00000FB01206A60C5E90230FF2085F8440011
:104A000085F8450005F11000FFF74EFB05F1240085
:104A1000FFF74AFBFFF7C0FB85F84C402846BDE88E
:104A2000F0814FF0500072B680F31188BFF36F8FA2
:104A3000BFF34F8F62B600BFFEE70000000000002A
:104A400070B582B078B11C46CBB121BB1AB34FF020
:104A5000500072B680F31188BFF36F8FBFF34F8F92
:104A600062B600BFFEE74FF0500072B680F31188C7
:104A7000BFF36F8FBFF34F8F62B600BFFEE74FF0FB
:104A8000500072B680F31188BFF36F8FBFF34F8F62
:104A900062B600BFFEE761B15AB94FF0500072B67E
:104AA00080F31188BFF36F8FBFF34F8F62B600BFE3
:104AB000FEE750230193019B502B2DD1019B012335
:104AC000002984F8463008BF2246E063069E226033
:104AD0002164FFF735FBD4E90F012268002501FBB3
:104AE0000023013800FB0120A5636260C4E90230A5
:104AF000FF2084F8440084F8450004F11000FFF71B
:104B0000D3FA04F12400FFF7CFFAFFF745FB84F84E
:104B10004C60204602B070BD4FF0500072B680F37A
:104B20001188BFF36F8FBFF34F8F62B6FEE70000AF
:104B30002DE9F04F83B00292D8B104461D460E46CF
:104B400019B3022D03D1E06B012840F0AF8000F0D3
:104B500033FB002827D10298002824D04FF05000C2
:104B600072B680F31188BFF36F8FBFF34F8F62B6B9
:104B7000FEE74FF0500072B680F31188BFF36F8FDD
:104B8000BFF34F8F62B600BFFEE7206C0028D8D07D
:104B90004FF0500072B680F31188BFF36F8FBFF3F0
:104BA0004F8F62B6FEE7FFF7CBFA022DA06B5ED007
:104BB000E16B88425BD304F1100801206F460DF1D0
:104BC000080900BF0299002900F08480C00702D0C4
:104BD0003846FFF73DFCFFF7DFFAFFF7EDFCFFF784
:104BE000AFFA94F84400FF2802D1002084F8440072
:104BF00094F84500FF2802D1002084F84500FFF713
:104C0000CBFA3846494600F083F9002865D1FFF712
:104C100097FAD4F838A0D4F83CB0FFF7BDFADA45DB
:104C200016D102994046FFF72BFC2046FFF7B0F85B
:104C300000F036FC88B94EF604504FF08051CEF2A9
:104C400000000160BFF34F8FBFF36F8F05E000BF1F
:104C50002046FFF79DF800F023FCFFF771FA022DC4
:104C6000A06B04D0E16B88424FF00000AAD2A76B82
:104C7000226C32B3002D39D0E0683146FBF712FCCC
:104C8000E168206C2268091A9142E16003D2404237
:104C9000A1680844E060A81E3946B0FA80F0002FF1
:104CA00018BF0121400908403F1A2CE04FF0500086
:104CB00072B680F31188BFF36F8FBFF34F8F62B668
:104CC000FEE720680025F8B9A06800F04DFBA5605C
:104CD000054619E0FFF760FA04E02046FFF758F8B0
:104CE00000F0DEFB002003B0BDE8F08F60683146C5
:104CF000FBF7D8FB216CD4E90102084460609042C4
:104D000001D3206860600025781CA06354F8240F4C
:104D100078B1204600F078FBB8B14EF604504FF061
:104D20008051CEF200000160BFF34F8FBFF36F8F51
:104D30000BE055B14EF604504FF08051CEF200001A
:104D40000160BFF34F8FBFF36F8FFFF725FA01208C
:104D500003B0BDE8F08F00002DE9F04F85B004925C
:104D6000A8B104460D46002900F0BB8000F024FAEB
:104D7000C8B90498B8B14FF0500072B680F31188EA
:104D8000BFF36F8FBFF34F8F62B600BFFEE74FF0E8
:104D9000500072B680F31188BFF36F8FBFF34F8F4F
:104DA00062B600BFFEE704F11000019004F1240098
:104DB00000900DF108090DF1100A4FF000080CE009
:104DC0002046FEF7E5FF00F06BFBFFF7B9F9A76B94
:104DD000FFF7E2F9002F00F09480FFF7B1F9D4F863
:104DE00038B0BBF1000F27D0226C5AB1D4E90210C1
:104DF0001044E060884201D32068E060E168284602
:104E0000FBF750FBABF10100A063206970B1019882
:104E100000F0FAFA50B14EF604504FF08051CEF245
:104E200000000160BFF34F8FBFF36F8FFFF7B4F93E
:104E300000200126A0B965E0049850B1B8F1000F38
:104E400002D14846FFF704FB4FF00108012038B9B2
:104E500058E0FFF7A1F900260020002852D000BF3B
:104E6000FFF79AF9FFF7A8FBFFF76AF994F84400F7
:104E7000FF2802D1002084F8440094F84500FF2860
:104E800002D1002084F84500FFF786F948465146D4
:104E900000F03EF800287FF493AFFFF751F9A76BBD
:104EA000FFF77AF92FB12046FEF772FF00F0F8FA0B
:104EB00093E704990098FFF7E3FA2046FEF768FFAE
:104EC00000F0EEFA00287FF488AF4EF604504FF061
:104ED0008051CEF200000160BFF34F8FBFF36F8FA0
:104EE0007BE7206C00283FF441AF4FF0500072B6D2
:104EF00080F31188BFF36F8FBFF34F8F62B600BF8F
:104F0000FEE70026304605B0BDE8F08F0000000047
:104F100070B5E0B10D4631B30446FFF711F949F61B
:104F2000843E40F2F853C2F2010EC2F20003DEF8F2
:104F300000106268186890F85A0000B318680021E1
:104F4000012480F85A10FFF727F9204670BD4FF072
:104F5000500072B680F31188BFF36F8FBFF34F8F8D
:104F600062B600BFFEE74FF0500072B680F31188C2
:104F7000BFF36F8FBFF34F8F62B600BFFEE72B68A2
:104F8000581C0CD049F6F82CC2F2010CDCF80000D9
:104F90002668B04205D0914203D30124D3E7002410
:104FA000D1E7891A8B4209D9581A2860DCF8000029
:104FB0002060DEF8000060600024C4E701240020C7
:104FC0002860C0E7000000002DE9F04F81B0950097
:104FD00081462846984692460F46FEF719FF78B15B
:104FE00004465C20FEF714FF38B10646046356B948
:104FF0004FF0FF3001B0BDE8F08F2046FFF7E8F832
:105000000026002EF4D0306BA52229464C46DDF850
:1050100028B04FF0000986F85990FBF788FA306BFA
:1050200000EB8A00A0F1040020F0070A77B106F136
:10503000340000217A5C42547A5C1AB10F2901F1E4
:105040000101F7D1002086F8430001E086F8349092
:10505000BBF1370F06F1040028BF4FF0370B0025D6
:10506000C6F82CB0C6E913B5FFF72AF806F1180008
:10507000FFF726F8CBF13800B06150462146424692
:1050800036617662756586F8585086F85A50FEF794
:10509000B7FF0B9930603046002918BF0E60FEF74D
:1050A00043FB012001B0BDE8F08F000000000000CC
:1050B0002DE9F04782B00B9E46B30C9C8CB3814621
:1050C0005C20019001985C2837D117460D46019865
:1050D000022084F859009100A52230469846DDF858
:1050E00028A02663FBF723FA002D206B31D004F1B2
:1050F00034010022AB5C8B54AB5C1BB10F2A02F174
:105100000102F7D1002184F8431025E04FF0500050
:1051100072B680F31188BFF36F8FBFF34F8F62B603
:10512000FEE74FF0500072B680F31188BFF36F8F27
:10513000BFF34F8F62B600BFFEE74FF0500072B66C
:1051400080F31188BFF36F8FBFF34F8F62B600BF3C
:10515000FEE7002184F8341000EB8700BAF1370F26
:10516000A0F104004FF0000628BF4FF0370A20F0EE
:105170000705201DC4F82CA0C4E913A6FEF7A0FF64
:1051800004F11800FEF79CFFCAF13800A061284620
:105190004946424624616462666584F8586084F832
:1051A0005A60FEF72DFF20602046FEF7BDFA20462C
:1051B00002B0BDE8F087000049F65030C2F20100AD
:1051C000006848B149F68820C2F201000068B0FAD0
:1051D00080F0400940007047012070470000000047
:1051E00049F68430C2F201000068704700000000F8
:1051F0002DE9F04F81B049F68820C2F20100006825
:1052000040B149F684200024C2F201000168013156
:1052100001609AE049F68430C2F2010001684E1C38
:10522000066030D340F20060C2F2000001680968F5
:1052300059B14FF0500072B680F31188BFF36F8FF1
:10524000BFF34F8F62B600BFFEE740F2086201680D
:10525000C2F2000213680360116049F6F821C2F23D
:1052600001010A6801320A600168096821B1006819
:10527000C068C068406801E04FF0FF3049F6F42193
:10528000C2F20101086049F6F42140F2F85AC2F274
:10529000010140F21068C2F2000AC2F20008086878
:1052A000864201D2002446E040F200670024C2F2A8
:1052B000000738680068A0B349F6902BC2F2010BD2
:1052C0001AE000BFD9F82C00DBF80010884229460C
:1052D00088BFCBF8000000EB800008EB8000FEF7F1
:1052E00013FFD9F82C00DAF80010C96A3A6888422E
:1052F00028BF01241068B8B13868C068D0F80C9095
:105300004D4655F8040F864210D32846FEF790FE0E
:10531000D9F828000028D5D009F11800FEF788FE3A
:10532000D0E74FF0FF3005E04FF0FF3049F6F421B1
:10533000C2F201010860DAF80000C06A00EB8000E8
:1053400058F82000012888BF012449F69030C2F2A5
:1053500001000068002818BF0124204601B0BDE804
:10536000F08F000000000000B0B590B1044640F29C
:10537000F850C2F200000068A0420CD04FF050007C
:1053800072B680F31188BFF36F8FBFF34F8F62B691
:10539000FEE70020B0BD206D38B3E26A411EE36C29
:1053A00000209A4221651FD0002918BFB0BD251DDD
:1053B0002846FEF73DFEE06CE062C0F13801A161D5
:1053C00049F69021C2F201010A68904288BF086044
:1053D00000EB800040F21061C2F2000101EB80009E
:1053E0002946FEF791FE0120B0BD4FF0500072B685
:1053F00080F31188BFF36F8FBFF34F8F62B600BF8A
:10540000FEE7000000000000B0B5C068C5687DB1CF
:1054100005F118042046FEF70BFE49F68820C2F27B
:105420000100006878B149F6FC20C2F201001FE0DB
:105430004FF0500072B680F31188BFF36F8FBFF347
:105440004F8F62B6FEE72C1D2046FEF7F1FD49F6B0
:105450009021E86AC2F201010A68904288BF0860A0
:1054600000EB800040F21061C2F2000101EB80000D
:105470002146FEF749FE40F2F850E96AC2F2000008
:105480000068C06A814206D949F690310120C2F213
:1054900001010860B0BD0020B0BD000000000000A8
:1054A0002DE9F04F81B049F68824C2F2010420684A
:1054B00068B1FEF745FE206801382060206890B191
:1054C0000024FEF769FE204601B0BDE8F08F4FF0E2
:1054D000500072B680F31188BFF36F8FBFF34F8F08
:1054E00062B600BFFEE749F67C20C2F20100006808
:1054F000002847D049F6FC2649F69038C2F201064A
:10550000C2F201083068002845D049F6902740F2E1
:10551000106940F2F85BC2F20107C2F20009C2F260
:10552000000B4FF0010A00BFF068C56805F11800D4
:10553000FEF77EFD2C1D2046FEF77AFDE86A3968ED
:105540008842214688BF386000EB800009EB80006C
:10555000FEF7DAFDE86ADBF80010C96A884228BF66
:10556000C8F800A030680028DED1A5B140F2006084
:10557000C2F200000168096831B10068C068C06803
:10558000406803E000249CE74FF0FF3049F6F42127
:10559000C2F20101086049F68424C2F201042568C0
:1055A00055B10126FFF724FE002818BFC8F8006097
:1055B000013DF7D100202060D8F8000060B14EF620
:1055C00004504FF08051CEF2000001240160BFF37F
:1055D0004F8FBFF36F8F74E7002472E70000000065
:1055E0002DE9F04381B005462C201E4690460F461B
:1055F000FEF70EFC0446C8B14FF0000084F8280006
:10560000C7B1DDF82090FEF71FF9201D2560C4E921
:105610000676C4F82090FEF753FDB8F1000F05D0D0
:1056200094F8280040F0040084F82800204601B0D7
:10563000BDE8F0834FF0500072B680F31188BFF3DD
:105640006F8FBFF34F8F62B6FEE7000000000000CF
:105650002DE9F04381B02C270097009F2C2F25D1F6
:10566000099C0546009864B30F4600294FF00200DC
:1056700084F8280031D01E469046DDF82090FEF7D1
:10568000E3F8201D2560C4E90676C4F82090FEF7F3
:1056900017FDB8F1000F05D094F8280040F0040081
:1056A00084F82800204601B0BDE8F0834FF0500098
:1056B00072B680F31188BFF36F8FBFF34F8F62B65E
:1056C000FEE74FF0500072B680F31188BFF36F8F82
:1056D000BFF34F8F62B600BFFEE74FF0500072B6C7
:1056E00080F31188BFF36F8FBFF34F8F62B600BF97
:1056F000FEE700000000000080B586B0FEF7A4F8C9
:1057000049F68830C2F20100006808B3002004A9FD
:10571000CDE9040005A803AAFEF7B2FCDDE90320E9
:1057200002210023CDE9001043F6C1200EA1C0F6EE
:105730000000DDF814C0CDF808C0FFF7B9FC49F649
:105740008C31C2F20101086010B1012006B080BDA9
:105750004FF0500072B680F31188BFF36F8FBFF324
:105760004F8F62B6FEE700BF546D72205376630020
:10577000F1EE100A4FF6FF71C0F2C03120EA0100CD
:1057800040F04070E1EE100A704700000000000099
:105790000000010203040607080900009F580008E2
:1057A00000000000000000000000000000000000F9
:1057B00000020000180000000000000000000000CF
:1057C00093580008000000000000000000000000E6
:1057D000000000000002000028000000000000009F
:1057E0000000000054580008000000000000000005
:1057F0000000000044580008000000000000000005
:10580000000000006C5800080000000000000000CC
:10581000000000008958000800000000000000009F
:1058200000000000765800080100000000000000A1
:1058300000000000625800080000000000000000A6
:10584000000000006D79436F756E74696E67536573
:105850006D3031006D7942696E61727953656D30DA
:1058600031006D7954696D65723031006D7945761E
:10587000656E743031006D79526563757273697647
:10588000654D757465783031006D794D7574657846
:105890003031005461736B42535731306D73005493
:1058A00061736B31306D73002E2E2F4472697665F3
:1058B00072732F53544D3332463778785F48414CDA
:1058C0005F4472697665722F5372632F73746D3300
:1058D00032663778785F68616C5F63616E2E630053
:1058E0002E2E2F447269766572732F53544D3332C6
:1058F000463778785F48414C5F4472697665722F0D
:105900005372632F73746D3332663778785F6861D2
:105910006C5F7263632E63002E2E2F44726976656E
:1059200072732F53544D3332463778785F48414C69
:105930005F4472697665722F5372632F73746D338F
:1059400032663778785F68616C5F7263635F657831
:105950002E63002E2E2F447269766572732F535476
:105960004D3332463778785F48414C5F44726976F0
:1059700065722F5372632F73746D33326637787884
:105980005F68616C5F6770696F2E63002E2E2F4415
:105990007269766572732F53544D33324637787877
:1059A0005F48414C5F4472697665722F5372632F72
:1059B00073746D3332663778785F68616C5F636FDC
:1059C000727465782E63002E2E2F4472697665728C
:1059D000732F53544D3332463778785F48414C5FCC
:1059E0004472697665722F5372632F73746D33320C
:1059F000663778785F68616C5F6372632E63002E30
:105A00002E2F447269766572732F53544D3332468C
:105A10003778785F48414C5F4472697665722F53DE
:105A200072632F73746D3332663778785F68616C98
:105A30005F6372635F65782E63002E2E2F44726958
:105A4000766572732F53544D3332463778785F48FA
:105A5000414C5F4472697665722F5372632F737481
:105A60006D3332663778785F68616C5F7274632E6D
:105A700063000000985A0008000000201000000099
:105A800034020008A85A00081000002088AB01006A
:105A900050020008000000000024F4000100000093
:085AA00010000000AAAAAAAA46
:04000005080001F9F5
:00000001FF
