:020000040800F2
:1000000030B30120B9020008599300088971000833
:1000100051930008B105000811A700080000000076
:100020000000000000000000000000003196000801
:100030005918000800000000D1930008F19600084C
:10004000D3020008D3020008D3020008D30200083C
:10005000D3020008D3020008D3020008D30200082C
:10006000D302000861180008D3020008D302000878
:10007000D3020008D3020008D3020008D30200080C
:10008000D3020008D3020008D3020008D3020008FC
:10009000B9050008C9050008D9050008D302000801
:1000A000D3020008D3020008D3020008D3020008DC
:1000B000D3020008D3020008D3020008D3020008CC
:1000C000D3020008D3020008D3020008D3020008BC
:1000D000D302000801A70008D3020008D3020008D9
:1000E000D3020008D3020008D3020008D30200089C
:1000F000D3020008D3020008D3020008D30200088C
:10010000D3020008D3020008D3020008D30200087B
:10011000D3020008D3020008D3020008D30200086B
:10012000D3020008D3020008D3020008D30200085B
:10013000D3020008D3020008D3020008D30200084B
:10014000D3020008D3020008D3020008D30200083B
:10015000D3020008D3020008D3020008D30200082B
:10016000D3020008D3020008D3020008D30200081B
:10017000D3020008D3020008D302000800000000E8
:10018000D3020008D3020008D3020008D3020008FB
:10019000D3020008D3020008D3020008D3020008EB
:1001A000D3020008D3020008D3020008D3020008DB
:1001B000D3020008D3020008D3020008D3020008CB
:1001C000D3020008D302000800000000D302000898
:1001D000D3020008D3020008D3020008D3020008AB
:1001E000D3020008D3020008D3020008D30200089B
:1001F000D3020008D302000800F002F800F04CF827
:100200000AA090E8000C82448344AAF10107DA4571
:1002100001D100F041F8AFF2090EBAE80F0013F077
:10022000010F18BFFB1A43F001031847B4E50000A3
:10023000D4E500000A4410F8014B14F00F0508BF84
:1002400010F8015B240908BF10F8014B6D1E05D0A2
:1002500010F8013B6D1E01F8013BF9D1641E03D07B
:10026000641E01F8015BFBD19142E4D370470000AA
:100270000023002400250026103A28BF78C1FBD8AF
:10028000520728BF30C148BF0B6070471FB50DF043
:100290003DFF1FBD10B510BD00F04FF91146FFF72F
:1002A000F5FF0AF0C1FA00F06DF903B4FFF7F2FFB1
:1002B00003BC00F075F90000094880470948004771
:1002C000FEE7FEE7FEE7FEE7FEE7FEE7FEE7FEE706
:1002D000FEE7FEE704480549054A064B7047000063
:1002E000E9970008F901000830A3012030B301208C
:1002F00030AB012030AB012053EA020C00F06980E2
:100300002DE9F04B4FF00006002B1FBFB3FA83F529
:1003100003FA05F424FA05F65E4012BF1643B2FA5A
:1003200082F502FA05F4C5F120051EBF22FA05FC8C
:1003300044EA0C04203556EA044C4FEA144418BF32
:10034000641C4FF000084FF00009904271EB030C61
:1003500039D3002919BFB1FA81F701FA07F6B0FACB
:1003600080F700FA07F6C7F120071EBF20FA07FC46
:1003700046EA0C062037B6FBF4FCA7EB0507103F56
:1003800007F01F0BCBF120062CFA06F60CFA0BFB3C
:1003900044BFB3460026202FA4BF5E464FF0000B9B
:1003A0005BEA060C08BF4FF0010B19EB0B0948EB99
:1003B0000608ABFB027C06FB02CC0BFB03CCC01B8C
:1003C00071EB0C01C1E70B46024641464846BDE8C9
:1003D000F08B13B5084318BF4FF0FF300146AFF361
:1003E0000080BDE81C407047032A40F2308010F0C6
:1003F000030C00F0158011F8013BBCF1020F6244C0
:1004000098BF11F801CB00F8013B38BF11F8013B50
:10041000A2F1040298BF00F801CB38BF00F8013BFD
:1004200011F0030300F05780083AC0F0088051F83B
:10043000043B083A51F804CBA0E80810F5E7121D78
:100440005CBF51F8043B40F8043BAFF30080D20797
:1004500024BF11F8013B11F801CB48BF11F8012B63
:1004600024BF00F8013B00F801CB48BF00F8012B86
:10047000704702F0FF0343EA032242EA024200F01F
:1004800002B84FF0000200B5134694469646203954
:1004900022BFA0E80C50A0E80C50B1F12001BFF43D
:1004A000F7AF090728BFA0E80C5048BF0CC05DF8A3
:1004B00004EB890028BF40F8042B08BF704748BFF1
:1004C00020F8022B11F0804F18BF00F8012B704765
:1004D00070477047704710B5203AC0F00B80B1E804
:1004E0001850A0E81850B1E81850A0E81850203A69
:1004F000BFF4F5AF5FEA027C24BFB1E81850A0E872
:10050000185044BF18C918C0BDE810405FEA827C8B
:1005100024BF51F8043B40F8043B08BF7047D207A2
:1005200028BF31F8023B48BF11F8012B28BF20F843
:10053000023B48BF00F8012B7047754600F02CF8CD
:10054000AE4605006946534620F00700854618B0C0
:1005500020B5FFF7BFFEBDE820404FF000064FF08A
:1005600000074FF000084FF0000BAC46ACE8C009A4
:10057000ACE8C009ACE8C009ACE8C00921F007014B
:100580008D46704710B50446AFF300802046BDE8A5
:100590001040FFF78ABE0000004870473802002074
:1005A00001491820ABBEFEE726000200704700009C
:1005B000FFE7FEE70000000080B540F69030C2F291
:1005C000000001F0B1FE80BD80B540F69030C2F26F
:1005D000000001F0A9FE80BD80B540F69030C2F267
:1005E000000001F0A1FE80BD81B0009001B0704715
:1005F00080B540F69030C2F2000001F02DFC80BDC5
:1006000080B508F035FD80BD80B584B040F69030EF
:10061000C2F2000001F020FE8DF80F009DF80F00DF
:10062000012823D1FFE740F29821C2F20001019195
:100630000020086048608860C8600861486188617F
:100640000120C86108620E20486240F69030C2F274
:100650000000029040F2024101F012F90199029863
:1006600001F062FA029802F0CBFBFFE704B080BD14
:1006700080B582B040F69030C2F2000001F0ECFD8F
:100680008DF807009DF8070002280DD1FFE740F61E
:100690009030C2F20000009040F2024101F024FCD0
:1006A000009802F0F5FBFFE702B080BD00000000FB
:1006B00080B540F2C120C2F20000007801280DD1BF
:1006C000FFE7FFF795FFFFF79BFFFFF79DFF40F266
:1006D000C121C2F2000100200870FFE780BD0000C8
:1006E000704700000000000070470000000000009C
:1006F000704700000000000070470000000000008C
:1007000080B540F2C220C2F20000007801280DD16D
:10071000FFE7FFF7E5FFFFF7E7FFFFF7E9FF40F22D
:10072000C221C2F2000100200870FFE780BD000076
:10073000704700000000000080B582B040F21C004D
:10074000C2F2000007F040FF0190019808B1FFE7F6
:10075000FFE702B080BD000082B001900198C04365
:100760000090009A40F62811C2F20001086810407B
:10077000086002B07047000080B582B040F2A4303B
:10078000C2F20000007840F2F011C2F200010978D4
:1007900088422ED0FFE740F2F010C2F2000000784D
:1007A000012803D0FFE700F08BF817E000F030FAE3
:1007B000012812D1FFE740F2F410C2F200000A2231
:1007C000114608F075FB8DF80700FFE79DF807005C
:1007D00008B9FFE7FFE7FFE7FFE7FFE740F2F010A8
:1007E000C2F20000007840F2A431C2F200010870A9
:1007F000FFE702B080BD000080B540F2B131C2F227
:10080000000100200870032000F0F2F980BD000014
:1008100080B540F2B131C2F200010120087000F051
:10082000E7F980BD0000000080B582B00190019A18
:1008300040F62810C2F20000016811430160006810
:1008400048B1FFE740F2E000C2F200004FF400714F
:1008500008F006FAFFE702B080BD000000000000CB
:1008600080B584B08DF80F0040F2A530C2F20000D0
:1008700000789DF80F10884215D0FFE79DF80F0013
:1008800040F2A531C2F2000108709DF80F008DF80A
:1008900004000020029040F21C00C2F2000001A9F6
:1008A00007F0EAFEFFE704B080BD00000000000092
:1008B00080B54FF4FA6008F007FA80BD0000000030
:1008C00080B507F051FD07F08BF880BD00000000F7
:1008D00080B507F035FD07F08BF880BD0000000003
:1008E00080B584B00390FFE7039808B9FFE7FFE7FE
:1008F000FFE700238DF80B30012001908DF80B00ED
:100900009DF80B200B2007F083FB0198039900F062
:10091000ABF804B080BD000080B588B08E46844638
:100920000B980A99CDF81CE0CDF818C005930492F5
:100930008DF80F108DF80E009DF80E003F2860DC3A
:10094000FFE79DF80E30A3F12002012101FA02FC1D
:10095000C3F1200021FA00F0002A58BF60469940F8
:10096000002A58BF0021013960F100000091019078
:10097000009B019A04980599184011400591049034
:10098000009901989DF80F3000FA03F2C3F120009E
:1009900021FA00F01043A3F1200201FA02FC002A20
:1009A00058BF60469940002A58BF0021009101902D
:1009B000049905989DF80F3000FA03F2C3F1200066
:1009C00021FA00F01043A3F1200201FA02FC002AF0
:1009D00058BF60469940002A58BF002104910590F5
:1009E000009B019A069807999843914307910690B6
:1009F000049B059A0698079918431143079106909E
:100A000004E00498059907910690FFE70698079976
:100A100008B080BD0000000082B001904EF24C2072
:100A2000C0F6000040680090009840680199401AA4
:100A3000B0FA80F0400902B07047000000000000EA
:100A400080B582B00190FFE7019808B9FFE7FFE7A2
:100A5000FFE7012006F0C0FC8DF803009DF80300BD
:100A600002B080BD0000000010B58EB08DF83700D8
:100A70000C919DF837004EF24C21C0F60001097828
:100A8000884280F2B080FFE74EF24C20C0F60000B2
:100A900040689DF8371000EB41100B900B98807A5E
:100AA00008B9FFE79EE0002009900890FFE70B9847
:100AB000407A07F035FD092801D3FFE7FFE7FFE79C
:100AC0000B98007C8DF81F0000208DF82B00FFE7AD
:100AD0009DF82B000B99497C88423EDAFFE79DF890
:100AE0001F009DF82B100844ADF81C00BDF81C0039
:100AF0004EF29421C0F600010988884226DAFFE709
:100B00004EF29420C0F600004068BDF81C1001EBC6
:100B1000410100EBC10006909DF81C0006F05CFC52
:100B20000591049008980999049A059BDDF818C06E
:100B30009CF800409CF801C0EE46CEF80440CEF888
:100B400000C0FFF7E9FE09910890FFE7FFE79DF875
:100B50002B0001308DF82B00BAE708208DF82A0011
:100B6000FFE79DF82A0018B3FFE79DF82A000390DD
:100B70000B98407A07F0D4FC01460398884208DCC1
:100B8000FFE79DF820000C9A9DF82A101144C874C4
:100B9000FFE708980999000A40EA0160090A0991EB
:100BA0000890FFE79DF82A0001388DF82A00D8E761
:100BB0000B9800780C9908700B9840680C99886025
:100BC0000B98007A0C9948700C99002088700C9949
:100BD000C8700C9908710B99497A0C9A11730C9989
:100BE0000861FFE7FFE70EB010BD00000000000045
:100BF00080B582B08DF807009DF8071040F23800EC
:100C0000C2F2000007F0B8FD02B080BD0000000095
:100C100080B540F23800C2F2000007F031FE80BD1E
:100C200080B582B001900198FFF7F6FEC0B202B025
:100C300080BD00000000000080B582B0019040F24D
:100C40000C10C2F2000008F07BF902B080BD000079
:100C500080B582B00190019940F24400C2F20000D8
:100C600007F00AFD8DF80300FFE79DF8030008B9BF
:100C7000FFE7FFE7FFE740F2E000C2F200000121DA
:100C800007F0EEFF02B080BD80B582B0019040F663
:100C90002810C2F20000006838B1FFE740F2B1311D
:100CA000C2F2000101200870FFE740F2E000C2F24A
:100CB0000000102107F0D4FF02B080BD000000004A
:100CC00080B582B001900420FFF7CAFD40F2AC006D
:100CD000C2F2000008F010F898B9FFE740F2AC004B
:100CE000C2F200004FF4FA72114608F0E1F88DF8F4
:100CF0000300FFE79DF8030008B9FFE7FFE7FFE700
:100D0000FFE740F29400C2F2000040F2DC51002202
:100D100008F0CEF88DF80200FFE79DF8020008B950
:100D2000FFE7FFE7FFE702B080BD00000000000022
:100D300080B582B0019040F29400C2F2000008F049
:100D4000FFF802B080BD000080B584B0039040F28F
:100D50004400C2F20000002107F0FEFB029002985E
:100D6000C0B3FFE740F27C00C2F2000007F0C4FF0E
:100D700038B1FFE740F27C00C2F2000008F0E0F872
:100D8000FFE740F27C00C2F200004FF4FA6100225B
:100D900008F08EF88DF80700FFE79DF8070008B906
:100DA000FFE7FFE7FFE70298FFF74AFE012804D1BB
:100DB000FFE70520FFF71CFFFFE740F2B131C2F269
:100DC00000010120087040F24400C2F2000007F068
:100DD0002FFCFFE704B080BD80B582B0019040F2E7
:100DE000E000C2F20000082107F03AFF02B080BD27
:100DF00080B582B0019040F2E000C2F20000042110
:100E000007F02EFF02B080BD80B582B0019040F2A5
:100E1000C400C2F200000068022808D3FFE740F2D5
:100E2000C401C2F200010868013808601DE040F208
:100E3000C400C2F200000068012815D1FFE740F2AB
:100E4000C401C2F2000108680138086040F2AC0039
:100E5000C2F20000009008F073F800984FF4FA72A4
:100E6000114608F025F8FFE7FFE740F2E000C2F284
:100E70000000022107F0F4FE02B080BD0000000077
:100E800080B582B001900620FFF7EAFC40F2F01036
:100E9000C2F20000007818B1FFE7FFF719FDFFE785
:100EA00040F2B031C2F200010020087040F27C0034
:100EB000C2F2000008F044F840F2F400C2F2000070
:100EC0000A22114607F0F4FF8DF80300FFE79DF8B2
:100ED000030008B9FFE7FFE7FFE740F22410C2F282
:100EE00000004FF4FA61002207F0E2FF8DF80300E2
:100EF000FFE79DF8030008B9FFE7FFE7FFE702B04F
:100F000080BD00000000000080B582B0019040F27A
:100F10002410C2F2000008F013F802B080BD0000F7
:100F200080B582B0019040F24400C2F2000000217E
:100F300007F012FB0090009848B1FFE7FFF768FC4C
:100F400040F24400C2F2000007F072FBFFE702B07B
:100F500080BD00000000000080B582B00190052037
:100F6000FFF77EFC40F2AC00C2F2000007F0E8FFA1
:100F700002B080BD0000000081B0009001B0704759
:100F800080B584B0039040F24400C2F2000000211A
:100F900007F0E2FA02900298E0B3FFE740F27C002B
:100FA000C2F2000007F0A8FE38B1FFE740F27C0073
:100FB000C2F2000007F0C4FFFFE740F27C00C2F27B
:100FC00000004FF4FA61002207F072FF8DF807006D
:100FD000FFE79DF8070008B9FFE7FFE7FFE7029882
:100FE000FFF72EFD012804D1FFE70520FFF700FEE3
:100FF00003E00120FFF7FCFDFFE740F2B131C2F250
:1010000000010120087040F24400C2F2000007F025
:101010000FFBFFE704B080BD80B584B003900320D0
:10102000FFF71EFC0C20012200920023019306F022
:10103000EFFF019B0E201A4606F0EAFF0098019A86
:1010400040F2B031C2F20001087040F2B130C2F299
:101050000000027040F2C800C2F2000040F2DC5111
:1010600007F026FF8DF80B00FFE79DF80B0008B98D
:10107000FFE7FFE7FFE740F2C401C2F200010B20E7
:10108000086040F62810C2F200000078C007D8B10E
:10109000FFE740F2AC00C2F2000007F02DFE90B96D
:1010A000FFE740F2AC00C2F200001422114607F044
:1010B000FFFE8DF80B00FFE79DF80B0008B9FFE776
:1010C000FFE7FFE7FFE71BE040F2AC00C2F20000E1
:1010D00007F012FE98B9FFE740F2AC00C2F2000040
:1010E0004FF4FA72114607F0E3FE8DF80B00FFE7AC
:1010F0009DF80B0008B9FFE7FFE7FFE7FFE7FFE711
:1011000040F27C00C2F2000007F0F6FD98B9FFE75C
:1011100040F27C00C2F200004FF4FA61002207F0B6
:10112000C7FE8DF80B00FFE79DF80B0008B9FFE73D
:10113000FFE7FFE7FFE704B080BD0000000000000C
:1011400080B582B0019040F2C401C2F200010B20D0
:1011500008600C2000231A4606F05AFF40F2C8002F
:10116000C2F2000007F0ECFE02B080BD00000000FB
:1011700080B584B0039040F24400C2F20000002128
:1011800007F0EAF90290029870B3FFE740F27C00A2
:10119000C2F2000007F0B0FD38B1FFE740F27C007A
:1011A000C2F2000007F0CCFEFFE740F27C00C2F282
:1011B00000004FF4FA61002207F07AFE8DF8070074
:1011C000FFE79DF8070008B9FFE7FFE7FFE740F2F8
:1011D000B131C2F200010120087040F24400C2F2B5
:1011E000000007F025FAFFE704B080BD0000000012
:1011F00080B582B0019040F62810C2F2000000686D
:1012000038B1FFE740F2B131C2F2000101200870AD
:10121000FFE740F2E000C2F200004FF4807107F0F7
:101220001FFD02B080BD000080B540F23800C2F260
:10123000000007F02DFB80BD80B582B00190FFF764
:101240009BFA40F2E000C2F200004FF0C04107F00C
:10125000E7FC98B1FFE740F2F010C2F2000000781E
:1012600018B9FFE7FFF72CFBFFE7FFF761FA012052
:10127000FFF7F6FA0020FFF7BBFCFFE740F2E000C3
:10128000C2F200004FF0004107F0CAFC48B1FFE78E
:10129000FFF752FA40F2E000C2F2000007F000FD52
:1012A000FFE740F2E000C2F200004FF4007107F0E7
:1012B000B7FC18B1FFE7FFF7ABFAFFE740F2E00039
:1012C000C2F20000012107F0ABFC48B1FFE7FFF7D5
:1012D000ABFF40F24400C2F2000007F0A9F9FFE7BB
:1012E00040F2E000C2F20000022107F099FC18B1C0
:1012F000FFE700F021F9FFE740F2E000C2F2000052
:10130000042107F08DFC08B1FFE7FFE740F2E000A1
:10131000C2F20000102107F083FCE8B1FFE7FFF7FD
:1013200077FC042804D1FFE70620FFF761FC12E0F8
:1013300040F27C00C2F200004FF4FA61002207F094
:10134000B7FD8DF80300FFE79DF8030008B9FFE73C
:10135000FFE7FFE7FFE7FFE740F2E000C2F200002F
:10136000202107F05DFC38B1FFE740F2F400C2F243
:10137000000007F0E5FDFFE740F2E000C2F20000E8
:101380004FF4807107F04CFCB8B1FFE740F2B13088
:10139000C2F20000007801280AD1FFE740F2B13123
:1013A000C2F20001002008700220FFF721FC03E0D8
:1013B0000420FFF71DFCFFE7FFE740F2E000C2F268
:1013C0000000082107F02CFC20B3FFE740F2B13009
:1013D000C2F200000078012818D1FFE740F2B130D6
:1013E000C2F200000022027040F29400C2F200003B
:1013F00040F2DC5107F05CFD8DF80200FFE79DF83C
:10140000020008B9FFE7FFE7FFE702E0FFF7F4F9A2
:10141000FFE7FFE740F2E000C2F20000402107F0E2
:10142000FFFB20B1FFE70720FFF7E2FBFFE740F2F9
:10143000E000C2F20000802107F0F2FB38B1FFE7C4
:1014400040F2F410C2F2000007F07AFDFFE702B0AC
:1014500080BD00000000000080B582B00190022035
:10146000FFF7FEF940F2B031C2F20001002008702F
:10147000FFF71EFA40F2F410C2F200000A221146F1
:1014800007F016FD8DF80300FFE79DF8030008B98B
:10149000FFE7FFE7FFE702B080BD000000000000AB
:1014A00080B582B0019040F2F410C2F2000007F063
:1014B00047FD02B080BD000080B582B0019040F2CF
:1014C0004400C2F20000002107F046F800900098A6
:1014D00048B1FFE7FFF79CF940F24400C2F2000078
:1014E00007F0A6F8FFE702B080BD00000000000092
:1014F00080B582B0019040F29810C2F20000002145
:1015000007F02AF80090009850B9FFE706F034FF82
:1015100040F2E000C2F20000202107F0A1FBFFE74B
:1015200002B080BD0000000080B582B00190FFF7DE
:10153000C7F902B080BD000080B58AB003A8019051
:10154000FFF7CEF9019940F26000C2F2000007F007
:1015500093F88DF80B00FFE79DF80B0008B9FFE743
:10156000FFE7FFE740F21420C2F20000102107F06D
:1015700077FB40F20C10C2F200004FF4FA71002227
:1015800007F096FC8DF80B00FFE79DF80B0008B9FB
:10159000FFE7FFE7FFE70AB080BD000000000000A2
:1015A00080B582B0019040F2E000C2F2000040211C
:1015B00007F056FB02B080BD80B582B0019040F2CA
:1015C0001420C2F20000402107F04AFB02B080BDA7
:1015D00080B584B0FFE740F24410C2F20000002161
:1015E00006F0BAFF02900298002818BF01208DF87B
:1015F00007009DF8070050B1FFE7029800680090CF
:1016000040F24410C2F2000007F012F8FFE79DF824
:10161000070008B9FFE72DE000208DF80F00FFE775
:101620009DF80F00012820DCFFE79DF80F1040F225
:101630003C10C2F2000050F8210001680098884771
:1016400060B1FFE79DF80F1040F23C10C2F20000BD
:1016500050F82100816800988847FFE7FFE79DF870
:101660000F0001308DF80F00DAE7FFE701200028B6
:10167000B1D1FFE704B080BD80B58AB0099040F2D7
:101680000F10ADF82200FFE701A8022107F010F9C2
:10169000ADF82200BDF82200002844D1FFE740F257
:1016A000B030C2F20000007890B9FFE74EF2A4100B
:1016B000C0F6000001680398884740B1FFE74EF28A
:1016C000A410C0F60000416801A88847FFE729E0A0
:1016D00000208DF80300FFE79DF80300012820DCBF
:1016E000FFE79DF8031040F23C10C2F2000050F8F2
:1016F000210001680398884760B1FFE79DF8031057
:1017000040F23C10C2F2000050F82100416801A8EC
:101710008847FFE7FFE79DF8030001308DF80300DD
:10172000DAE7FFE709E0BDF8220040F20F11884236
:1017300001D1FFE700E0FFE7FFE7FFE7BDF8220088
:101740000028A1D0FFE70AB080BD00000000000023
:1017500080B582B0019040F21420C2F20000042152
:1017600007F07EFA02B080BD80B582B0019040F2F1
:101770004410C2F2000001A906F07EFF40F21420DE
:10178000C2F20000202107F06BFAFFE740F244109C
:10179000C2F20000806908B9FFE7FFE7FFE702B087
:1017A00080BD00000000000080B584B00020ADF8CE
:1017B0000E00FFE740F26000C2F20000002106F0D8
:1017C000CBFE0290029808B9FFE715E002980321CA
:1017D00007F06EF8ADF80E00BDF80E0008B1FFE797
:1017E000FFE740F26000C2F2000006F021FFFFE7D1
:1017F00001200028DED1FFE7FFE740F29810C2F297
:101800000000002106F0A8FE0190019808B9FFE74A
:1018100015E001A8032107F04BF8ADF80E00BDF864
:101820000E0008B1FFE7FFE740F29810C2F2000097
:1018300006F0FEFEFFE701200028DED1FFE704B03E
:1018400080BD00000000000080B582B001900198CA
:1018500007F0BAF902B080BD704700000000000038
:1018600080B5082001F054FF80BD0000000000009A
:1018700081B0EFF3108072B60090FFE7FEE7000042
:1018800080B584B002900191029890F820008DF804
:101890000300019848F67F71C0F20301884201D825
:1018A000FFE708E04EF2C850C0F6000040F27B614E
:1018B00008F0B2FFFFE79DF80300012805D0FFE71D
:1018C0009DF8030002280AD1FFE7019A02980168F7
:1018D00048691043486100208DF80F0008E0029924
:1018E000486A40F48020486201208DF80F00FFE72D
:1018F0009DF80F0004B080BD80B588B006900591BA
:1019000004920393069890F820008DF8070006983B
:101910000068806800900598806828B1FFE7059806
:101920008068042801D1FFE708E04EF2C850C0F6F5
:10193000000040F2EB4108F06FFFFFE70598C06838
:1019400028B1FFE70598C068022801D1FFE708E049
:101950004EF2C850C0F6000040F2EC4108F05CFFC7
:10196000FFE705980069082801D8FFE708E04EF274
:10197000C850C0F6000040F2ED4108F04DFFFFE70F
:101980000598806890B9FFE7059801680020B0EBE2
:10199000D12F01D1FFE708E04EF2C850C0F6000099
:1019A0004FF49E6108F038FFFFE711E005984168A9
:1019B0000020B0EB517F01D1FFE708E04EF2C850A4
:1019C000C0F6000040F2F44108F026FFFFE7FFE711
:1019D0000598007D28B1FFE70598007D012801D119
:1019E000FFE708E04EF2C850C0F6000040F2F641B2
:1019F00008F012FFFFE79DF80700012806D0FFE777
:101A00009DF80700022840F08080FFE79DF8030062
:101A1000400700280CD4FFE79DF8030000070028CA
:101A200006D4FFE79DF80300C006002864D5FFE751
:101A30000098C0F301600290029901208840039948
:101A400008600598806868B9FFE705980168C06874
:101A500040EA415006990968029A01EB0211C1F867
:101A600080010EE005994A688868C96840EAC200AA
:101A7000084306990968029A01EB0211C1F8800136
:101A8000FFE70598006906990968029A01EB0211BF
:101A9000C1F884010598007D01280CD1FFE7069864
:101AA0000068029900EB0111D1F8840140F48070C4
:101AB000C1F88401FFE70498406806990968029A12
:101AC00001EB0211C1F88C010498006806990968BD
:101AD000029A01EB0211C1F8880106980068029988
:101AE00000EB0111D1F8800140F00100C1F8800144
:101AF00000208DF81F0011E00699486A40F400109C
:101B0000486201208DF81F0008E00699486A40F4F9
:101B10008020486201208DF81F00FFE79DF81F001C
:101B200008B080BD0000000080B586B0049003912D
:101B3000049800680190049890F820008DF8030044
:101B40009DF80300012806D0FFE79DF80300022856
:101B500040F07581FFE70398408808B9FFE708E087
:101B60004EF2C850C0F6000040F2513108F054FE69
:101B7000FFE70398C08808B9FFE708E04EF2C850B5
:101B8000C0F6000040F2523108F046FEFFE703982D
:101B9000408908B9FFE708E04EF2C850C0F60000DF
:101BA00040F2533108F038FEFFE70398C08908B9C6
:101BB000FFE708E04EF2C850C0F600004FF4557140
:101BC00008F02AFEFFE70398806928B1FFE7039831
:101BD0008069012801D1FFE708E04EF2C850C0F645
:101BE000000040F2553108F017FEFFE70398C06986
:101BF00028B1FFE70398C069012801D1FFE708E099
:101C00004EF2C850C0F6000040F2563108F004FE13
:101C1000FFE70398006928B1FFE7039800690128EE
:101C200001D1FFE708E04EF2C850C0F6000040F2D4
:101C3000573108F0F1FDFFE70398006A28B1FFE78C
:101C40000398006A012801D1FFE708E04EF2C8506E
:101C5000C0F600004FF4567108F0DEFDFFE704986F
:101C6000006843F20041C4F20001884210D1FFE74E
:101C7000039840690D2801D8FFE708E04EF2C850EC
:101C8000C0F6000040F2613108F0C6FDFFE723E036
:101C900046F20040C4F200000190039840691B28FE
:101CA00001D8FFE708E04EF2C850C0F6000040F24D
:101CB0006A3108F0B1FDFFE70398406A1B2801D89C
:101CC000FFE708E04EF2C850C0F6000040F26B316A
:101CD00008F0A2FDFFE7FFE70199D1F8000240F00C
:101CE0000100C1F80002019846F20041C4F200016F
:101CF000884211D1FFE70199D1F8000220F47C500D
:101D0000C1F800020398426A0199D1F8000240EA42
:101D10000220C1F80002FFE70398406900F01F01AC
:101D2000012088400290029A0199D1F81C02904348
:101D3000C1F81C020398C069F0B9FFE7029A019943
:101D4000D1F80C029043C1F80C02039A9088D16834
:101D5000526940EA0140019901EBC201C1F8400219
:101D6000039A10889168526940EA0140019901EB99
:101D7000C201C1F84402FFE70398C06901281ED1DF
:101D8000FFE7029A0199D1F80C021043C1F80C0246
:101D9000039A90881168526940EA0140019901EB69
:101DA000C201C1F84002039A90899168526940EAE1
:101DB0000140019901EBC201C1F84402FFE7039819
:101DC000806940B9FFE7029A0199D1F80402904373
:101DD000C1F8040207E0029A0199D1F80402104305
:101DE000C1F80402FFE70398006940B9FFE7029ACF
:101DF0000199D1F814029043C1F8140207E0029A45
:101E00000199D1F814021043C1F81402FFE70398B6
:101E1000006A012808D1FFE7029A0199D1F81C0253
:101E20001043C1F81C02FFE70199D1F8000220F02D
:101E30000100C1F8000200208DF8170008E00499A5
:101E4000486A40F48020486201208DF81700FFE7BF
:101E50009DF8170006B080BD80B582B00090009854
:101E600020B9FFE701208DF8070039E000980068ED
:101E700046F20041C4F20001884212D0FFE7009808
:101E8000006846F60001C4F20001884209D0FFE76D
:101E90000098006843F20041C4F20001884201D179
:101EA000FFE708E04EF2C850C0F600004FF4EA71B8
:101EB00008F0B2FCFFE7009800F0EAFF009800F09D
:101EC000ABFE00980168086840F400400860009983
:101ED00000204862009981F820008DF80700FFE794
:101EE0009DF8070002B080BD80B584B002900191DA
:101EF000029890F820008DF80300019848F67F7151
:101F0000C0F20301884201D8FFE708E04EF2C85052
:101F1000C0F6000040F29C6108F07EFCFFE79DF8EF
:101F20000300012805D0FFE79DF8030002280AD12D
:101F3000FFE7019A029801684869904348610020D0
:101F40008DF80F0008E00299486A40F4802048624A
:101F500001208DF80F00FFE79DF80F0004B080BD51
:101F600080B582B00190019800F026F800900098AA
:101F700004281BD1FFE70198006846F20041C4F233
:101F80000001884207D1FFE740F2C121C2F20001FF
:101F90000120087006E040F2C221C2F200010120D7
:101FA0000870FFE70198FFF707FB00E0FFE702B0CA
:101FB00080BD00000000000081B000900098406AE1
:101FC00001B070470000000080B584B0039002911A
:101FD00000200190039890F820008DF803000298EB
:101FE00020B1FFE70298012801D1FFE708E04EF297
:101FF000C850C0F6000040F2476108F00DFCFFE752
:102000009DF80300012805D0FFE79DF80300022892
:1020100012D1FFE7029838B9FFE703980068C0685B
:1020200000F00300019006E003980068006900F0EA
:1020300003000190FFE7FFE7019804B080BD0000B6
:1020400080B586B00490039102920193049890F8B1
:1020500020008DF80300039820B1FFE703980128C2
:1020600001D1FFE708E04EF2C850C0F6000040F290
:10207000EA5108F0D1FBFFE79DF80300012806D0E4
:10208000FFE79DF80300022840F0D780FFE70398A0
:1020900080B9FFE704980068C068800748B9FFE787
:1020A0000499486A40F40010486201208DF8170036
:1020B000CCE00FE0049800680069800748B9FFE7AA
:1020C0000499486A40F40010486201208DF8170016
:1020D000BCE0FFE704980068039900EB0110D0F81A
:1020E000B00100F00400029988600298806858B935
:1020F000FFE704980068039900EB0110D0F8B001E5
:10210000400D029908600AE004980068039900EB0A
:102110000110D0F8B001C00802994860FFE70498A8
:102120000068039900EB0110D0F8B00100F0020044
:102130000299C86004980068039900EB0110D0F878
:10214000B40100F00F000299086104980068039937
:1021500000EB0110D0F8B40180B2000A0299886146
:1021600004980068039900EB0110D0F8B401000C4A
:102170000299486104980068039900EB0110D0F8B7
:10218000B8010199087004980068039900EB0110E8
:10219000D0F8B801000A01994870049800680399C2
:1021A00000EB0110D0F8B801000C01998870049878
:1021B0000068039900EB0110D0F8B801000E0199F6
:1021C000C87004980068039900EB0110D0F8BC01B6
:1021D0000199087104980068039900EB0110D0F888
:1021E000BC01000A0199487104980068039900EB4A
:1021F0000110D0F8BC01000C0199887104980068A6
:10220000039900EB0110D0F8BC01000E0199C871D0
:10221000039838B9FFE704980168C86840F02000C7
:10222000C86006E004980168086940F02000086171
:10223000FFE700208DF8170008E00499486A40F491
:102240008020486201208DF81700FFE79DF81700F5
:1022500006B080BD0000000082B00190019890F8A7
:1022600020008DF803009DF80300012805D0FFE74A
:102270009DF80300022819D1FFE701980068406823
:102280008007002804D5FFE704208DF803000CE048
:102290000198006800688007002804D5FFE7032044
:1022A0008DF8030000E0FFE7FFE7FFE79DF803007C
:1022B00002B070470000000083B00290002001903F
:1022C000029890F820008DF803009DF80300012883
:1022D00005D0FFE79DF80300022822D1FFE702980E
:1022E000006880684001002804D5FFE701980130AC
:1022F0000190FFE70298006880680001002804D57B
:10230000FFE7019801300190FFE7029800688068BC
:10231000C000002804D5FFE7019801300190FFE7D5
:10232000FFE7019803B0704780B58AB0099000209C
:10233000089009980068406907900998006840680B
:102340000690099800688068059009980068C06840
:1023500004900998006800690390099800688069F2
:1023600002909DF81C00C007002800F09480FFE751
:102370009DF81400C00758B3FFE7099801680120D1
:1023800088609DF814008007002804D5FFE70998AD
:1023900000F0CEFD1BE09DF814004007002805D595
:1023A000FFE7089840F4006008900FE09DF81400E3
:1023B0000007002805D5FFE7089840F480500890F2
:1023C00003E0099800F0B0FDFFE7FFE7FFE7FFE754
:1023D0009DF81500C00760B3FFE7099801684FF446
:1023E000807088609DF815008007002804D5FFE7FD
:1023F000099800F0A5FD1BE09DF815004007002896
:1024000005D5FFE7089840F4005008900FE09DF8CC
:1024100015000007002805D5FFE7089840F4804024
:10242000089003E0099800F087FDFFE7FFE7FFE76A
:10243000FFE79DF81600C00760B3FFE70998016841
:102440004FF4803088609DF816008007002804D57E
:10245000FFE7099800F07CFD1BE09DF8160040079F
:10246000002805D5FFE7089840F4004008900FE0E9
:102470009DF816000007002805D5FFE7089840F4EE
:102480008030089003E0099800F05EFDFFE7FFE769
:10249000FFE7FFE7FFE79DF81C000007002810D5C5
:1024A000FFE79DF81000C006002809D5FFE708984F
:1024B00040F400700890099801681020C860FFE798
:1024C000FFE79DF81C00400700280FD5FFE79DF8A7
:1024D00010000007002808D5FFE7099801680820C8
:1024E000C860099800F020FCFFE7FFE79DF81C009A
:1024F000800700280BD5FFE709980068C0688007AF
:1025000020B1FFE7099800F013FCFFE7FFE79DF813
:102510001C004006002810D5FFE79DF80C00C006FF
:10252000002809D5FFE7089840F4806008900998D2
:10253000016810200861FFE7FFE79DF81C00800696
:1025400000280FD5FFE79DF80C000007002808D5EC
:10255000FFE70998016808200861099800F044FC29
:10256000FFE7FFE79DF81C00C00600280BD5FFE73A
:10257000099800680069800720B1FFE7099800F01A
:1025800037FCFFE7FFE79DF81E00800700280FD506
:10259000FFE79DF81800C006002808D5FFE7099856
:1025A000016810204860099800F026FCFFE7FFE76B
:1025B0009DF81E00C00778B1FFE79DF818000007DE
:1025C000002808D5FFE709980168082048600998A5
:1025D00000F0C2FCFFE7FFE79DF81D0000060028A1
:1025E00040F18D80FFE79DF818004007002840F17A
:1025F0008180FFE79DF81D00C00750B1FFE79DF8FF
:102600000800C00728B1FFE7089840F001000890D3
:10261000FFE79DF81D00800700280BD5FFE79DF818
:1026200008008007002805D5FFE7089840F0020061
:102630000890FFE79DF81D00400700280BD5FFE735
:102640009DF808004007002805D5FFE7089840F0EE
:1026500004000890FFE79DF81D000007002848D5FA
:10266000FFE79DF8080010F0700F42D0FFE70298D6
:1026700000F0700001460191102814D0FFE7019886
:10268000202815D0FFE70198302816D0FFE70198E1
:10269000402817D0FFE70198502818D0FFE701988D
:1026A000602819D01DE0089840F00800089019E053
:1026B000089840F01000089014E0089840F02000BE
:1026C00008900FE0089840F0400008900AE0089851
:1026D00040F08000089005E0089840F48070089071
:1026E00000E0FFE709980168886920F070008861C0
:1026F000FFE7FFE70998016804204860FFE70898B2
:1027000048B1FFE7089A0999486A10434862099856
:10271000FFF726FCFFE70AB080BD000000000000C4
:1027200080B584B00290029820B9FFE701208DF8AF
:102730000F006CE20298006846F20041C4F200010A
:10274000884212D0FFE70298006846F60001C4F202
:102750000001884209D0FFE70298006843F2004177
:10276000C4F20001884201D1FFE708E04EF2C850F0
:10277000C0F6000040F21D1108F04EF8FFE7029885
:10278000007E28B1FFE70298007E012801D1FFE713
:1027900008E04EF2C850C0F600004FF48F7108F008
:1027A0003BF8FFE70298407E28B1FFE70298407EA1
:1027B000012801D1FFE708E04EF2C850C0F6000042
:1027C00040F21F1108F028F8FFE70298807E28B138
:1027D000FFE70298807E012801D1FFE708E04EF272
:1027E000C850C0F600004FF4907108F015F8FFE7EC
:1027F0000298C07E28B1FFE70298C07E012801D16F
:10280000FFE708E04EF2C850C0F6000040F2211188
:1028100008F002F8FFE70298007F28B1FFE702986E
:10282000007F012801D1FFE708E04EF2C850C0F652
:1028300000004FF4917107F0EFFFFFE70298407F2F
:1028400028B1FFE70298407F012801D1FFE708E0A7
:102850004EF2C850C0F6000040F2231107F0DCFF32
:10286000FFE70298806890B1FFE702988068B0F1B6
:10287000804F0CD0FFE702988068B0F1004F06D07F
:10288000FFE702988068B0F1404F01D1FFE708E010
:102890004EF2C850C0F600004FF4927107F0BCFF32
:1028A000FFE70298C06890B1FFE70298C068B0F1F6
:1028B000807F0CD0FFE70298C068B0F1007F06D09F
:1028C000FFE70298C068B0F1407F01D1FFE708E060
:1028D0004EF2C850C0F6000040F2251107F09CFFF0
:1028E000FFE70298006900285AD0FFE702980069C4
:1028F000B0F5803F54D0FFE702980069B0F5003F83
:102900004ED0FFE702980069B0F5403F48D0FFE79E
:1029100002980069B0F5802F42D0FFE70298006965
:10292000B0F5A02F3CD0FFE702980069B0F5C02FAA
:1029300036D0FFE702980069B0F5E02F30D0FFE70E
:1029400002980069B0F5002F2AD0FFE702980069CD
:10295000B0F5102F24D0FFE702980069B0F5202FC2
:102960001ED0FFE702980069B0F5302F18D0FFE7BE
:1029700002980069B0F5402F12D0FFE70298006975
:10298000B0F5502F0CD0FFE702980069B0F5602F2A
:1029900006D0FFE702980069B0F5702F01D1FFE77C
:1029A00008E04EF2C850C0F600004FF4937107F0F3
:1029B00033FFFFE70298406950B3FFE70298406990
:1029C000B0F5801F24D0FFE702984069B0F5001FE2
:1029D0001ED0FFE702984069B0F5401F18D0FFE70E
:1029E00002984069B0F5800F12D0FFE70298406965
:1029F000B0F5A00F0CD0FFE702984069B0F5C00F0A
:102A000006D0FFE702984069B0F5E00F01D1FFE77B
:102A100008E04EF2C850C0F6000040F2271107F05F
:102A2000FBFEFFE70298406838B1FFE70298406874
:102A3000B0F5806F01D8FFE708E04EF2C850C0F64D
:102A400000004FF4947107F0E7FEFFE7029890F85A
:102A5000200020B9FFE7029800F006F9FFE702988E
:102A60000168086840F00100086001F0F9FA01907F
:102A7000FFE7029800684068C007A8B9FFE701F0C7
:102A8000EFFA0199401A0B280DD3FFE70299486A23
:102A900040F4003048620299052081F820000120AE
:102AA0008DF80F00B3E0E4E702980168086820F0B1
:102AB0000200086001F0D4FA0190FFE70298006874
:102AC00040688007002815D5FFE701F0C9FA019991
:102AD000401A0B280DD3FFE70299486A40F40030F2
:102AE00048620299052081F8200001208DF80F002E
:102AF0008DE0E3E70298007E012807D1FFE7029806
:102B00000168086840F08000086006E002980168EB
:102B1000086820F080000860FFE70298407E0128E6
:102B200007D1FFE702980168086840F0400008609C
:102B300006E002980168086820F040000860FFE79E
:102B40000298807E012807D1FFE702980168086893
:102B500040F02000086006E002980168086820F054
:102B600020000860FFE70298C07E012807D1FFE738
:102B700002980168086820F01000086006E00298DA
:102B80000168086840F010000860FFE70298007FC5
:102B9000012807D1FFE702980168086840F00800A3
:102BA000086006E002980168086820F008000860E4
:102BB000FFE70298407F012807D1FFE702980168EC
:102BC000086840F00400086006E0029801680868A0
:102BD00020F004000860FFE7029B19685A689868B3
:102BE000D3F80CC040EA0C00D3F810C040EA0C0047
:102BF0005B691843013A1043C8610299002048629A
:102C0000029A012182F820108DF80F00FFE79DF84D
:102C10000F0004B080BD000080B582B00190019823
:102C2000006846F20041C4F20001884219D1FFE772
:102C300043F64001C4F20201086820F00070086009
:102C40000020C4F202004FF4C05100F0ADFB14208C
:102C500001F092FA152001F08FFA162001F08CFA9B
:102C6000FFE702B080BD000080B58CB00B90002063
:102C70000A9009900890079006900B98006846F219
:102C80000041C4F2000188424CD1FFE7FFE743F660
:102C90004000C4F20200016841F000710160006868
:102CA00000F0007005900598FFE7FFE743F630005D
:102CB000C4F20200016841F001010160006800F007
:102CC000010004900498FFE74FF4C05006900220E2
:102CD00007900020029008900320099009200A9094
:102CE0000020C4F2020006A900F02EFD029A142072
:102CF0000090062101F070FA009801F055FA029A4E
:102D000015200190072101F067FA019801F04CFAB3
:102D1000029A16200390052101F05EFA039801F053
:102D200043FAFFE70CB080BD81B0009001B070475E
:102D300080B592B01190FFE7119802A901F1140338
:102D400000210AAAFFF77CF98DF807009DF807001B
:102D5000002841D1FFE700208DF808000C9830B919
:102D6000FFE700208DF809000A98049005E0012093
:102D70008DF809000B980490FFE70D9838B9FFE72C
:102D800000208DF80C000E988DF8140006E001204C
:102D90008DF80C0000208DF81400FFE740F20000D1
:102DA000C2F2000002A905F067FC8DF806009DF84C
:102DB000060038B9FFE740F20000C2F2000005F05B
:102DC000BBFB03E01198FEF7C3FCFFE7119800215D
:102DD000FFF7FAF8099000E004E0FFE709980028FF
:102DE000AAD1FFE712B080BD81B0009001B070475A
:102DF00081B0009001B0704781B0009001B0704781
:102E000080B584B00290029890F8200001282FD15C
:102E1000FFE70299022081F8200002980168086803
:102E200020F00100086001F01BF90190FFE7029813
:102E300000684068C007A8B1FFE701F011F90199E7
:102E4000401A0B280DD3FFE70299486A40F400307E
:102E500048620299052081F8200001208DF80F00BA
:102E60000FE0E4E70299002048628DF80F0008E0C7
:102E70000299486A40F40020486201208DF80F0052
:102E8000FFE79DF80F0004B080BD000000000000C7
:102E900080B584B00290029890F82000022833D1C7
:102EA000FFE702980168086840F00100086001F03F
:102EB000D7F80190FFE7029800684068C007A8B9FA
:102EC000FFE701F0CDF80199401A0B280DD3FFE779
:102ED0000299486A40F4003048620299052081F85E
:102EE000200001208DF80F0017E0E4E70298016848
:102EF000086820F0020008600299012081F8200093
:102F000000208DF80F0008E00299486A40F4801014
:102F1000486201208DF80F00FFE79DF80F0004B014
:102F200080BD00000000000081B0009001B070473B
:102F300081B0009001B0704781B0009001B070473F
:102F400081B0009001B0704781B0009001B070472F
:102F500081B0009001B0704781B0009001B070471F
:102F600080B588B007900691059200208DF8130077
:102F70001F200390059860B1FFE70598082808D046
:102F8000FFE70598102804D0FFE70598182801D11D
:102F9000FFE707E04EF21F70C0F600005F2107F068
:102FA0003BFCFFE7FFE70399481E039000200290D7
:102FB00051B1FFE70698039901F01F0120FA01F1D2
:102FC000012088430290FFE70298C00708B1FFE79D
:102FD000E9E70598019018282BD80199DFE801F05E
:102FE00028292929292929291F292929292929295C
:102FF00016292929292929290D000398072804D3EE
:10300000FFE701208DF81300FFE716E0039808287A
:1030100004D3FFE701208DF81300FFE70DE00398CC
:10302000102804D3FFE701208DF81300FFE704E028
:1030300003E001208DF81300FFE79DF8130078B935
:10304000FFE7069807990968486107980068806853
:1030500020F0180005990843079909688860FFE780
:103060009DF8130008B080BD80B582B00090009834
:1030700020B9FFE701208DF80700D3E00098006831
:1030800043F20001C4F20201884201D1FFE707E0E8
:103090004EF2E760C0F60000702107F0BDFBFFE7CD
:1030A0000098407F38B9FFE7009900200877009822
:1030B00000F0BEF8FFE700990220487700980079F9
:1030C00028B1FFE700980079012801D1FFE707E068
:1030D0004EF2E760C0F600007E2107F09DFBFFE79F
:1030E0000098007980B9FFE70098016841F6B75071
:1030F000C0F2C140486100980068806820F0180064
:103100000099096888600BE000988168C268FFF741
:1031100027FF20B1FFE701208DF8070082E0FFE7DD
:103120000098407928B1FFE700984079012801D143
:10313000FFE707E04EF2E760C0F60000902107F0DD
:103140006BFBFFE70098407930B9FFE70098016812
:103150004FF0FF30086104E00098016800690861E1
:10316000FFE70098406978B1FFE7009840692028A0
:103170000AD0FFE700984069402805D0FFE7009893
:103180004069602801D1FFE707E04EF2E760C0F632
:1031900000009C2107F040FBFFE700980068806872
:1031A00020F06000009A116852691043886000980E
:1031B000806928B1FFE700988069802801D1FFE786
:1031C00007E04EF2E760C0F60000A02107F024FB04
:1031D000FFE700980068806820F08000009A11687E
:1031E0009269104388600098006A01280AD0FFE7BE
:1031F0000098006A022805D0FFE70098006A0328BB
:1032000001D1FFE707E04EF2E760C0F60000A5211C
:1032100007F002FBFFE700990120487700208DF8B6
:103220000700FFE79DF8070002B080BD0000000026
:1032300082B001900198006843F20001C4F20201DB
:10324000884210D1FFE7FFE743F63000C4F20200E6
:10325000016841F480510160006800F480500090E2
:103260000098FFE7FFE702B0704700000000000091
:1032700080B584B002900298806D019000F0F0FE5D
:103280000090029890F8350002280DD0FFE70299CF
:1032900080204865FFE70299002081F83400FFE7AD
:1032A00001208DF80F0055E002980168086820F0B1
:1032B0001600086002980168486920F080004861A3
:1032C0000298006C20B9FFE70298806C38B1FFE7E4
:1032D00002980168086820F008000860FFE702987B
:1032E0000168086820F001000860FFE702980068A4
:1032F0000068C007C8B1FFE700F0B2FE0099401AAD
:10330000062811D3FFE7029920204865029903207F
:1033100081F83500FFE70299002081F83400FFE7CB
:1033200003208DF80F0015E0E0E70298C16D3F2003
:103330008840019988600299012081F83500FFE7F3
:103340000299002081F83400FFE7FFE700208DF8A4
:103350000F00FFE79DF80F0004B080BD00000000E3
:1033600082B00090009890F83500022807D0FFE75F
:1033700000998020486501208DF807000EE0009933
:10338000052081F8350000980168086820F00100E8
:103390000860FFE700208DF80700FFE79DF80700B1
:1033A00002B070470000000080B590B00F900E9101
:1033B00000200C900B900A900F980021C4F202019B
:1033C000884250D0FFE70F9840F20041C4F202015A
:1033D000884248D0FFE70F9840F60001C4F202018E
:1033E000884240D0FFE70F9840F60041C4F2020146
:1033F000884238D0FFE70F9841F20001C4F2020181
:10340000884230D0FFE70F9841F20041C4F2020138
:10341000884228D0FFE70F9841F60001C4F202016C
:10342000884220D0FFE70F9841F60041C4F2020124
:10343000884218D0FFE70F9842F20001C4F202015F
:10344000884210D0FFE70F9842F20041C4F2020117
:10345000884208D0FFE70F9842F60001C4F202014B
:10346000884201D1FFE708E04EF27360C0F6000029
:1034700040F22B1107F0D0F9FFE700200D90FFE795
:103480000D980F2800F21F81FFE70D990120884059
:103490000C900E980C9908400B900B980C99884250
:1034A00040F00C81FFE70D9820F0030043F608017F
:1034B000C4F2010140580A900D9800F00300810009
:1034C0000F2000FA01F10A9808400A900A98099022
:1034D0000F980021C4F20201884203D1FFE70020C7
:1034E00008907AE00F9840F20041C4F2020188424D
:1034F00003D1FFE7012007906CE00F9840F6000130
:10350000C4F20201884203D1FFE7022006905EE088
:103510000F9840F60041C4F20201884203D1FFE750
:103520000320059050E00F9841F20001C4F202011F
:10353000884203D1FFE70420049042E00F9841F253
:103540000041C4F20201884203D1FFE70520039045
:1035500034E00F9841F60001C4F20201884203D121
:10356000FFE70620029026E00F9841F60041C4F2E2
:103570000201884203D1FFE70720019018E00F986D
:1035800042F20001C4F20201884203D1FFE70820A1
:1035900000900AE00F9942F20042C4F202020A20AF
:1035A000914208BF09200090FFE700980190FFE7D3
:1035B00001980290FFE702980390FFE703980490B8
:1035C000FFE704980590FFE705980690FFE7069847
:1035D0000790FFE707980890FFE709980899C9B294
:1035E0000D9A02F0030292009140884233D1FFE726
:1035F0000B9A43F60041C4F2010108689043086049
:103600000B9A43F60441C4F2010108689043086034
:103610000B9A43F60C41C4F201010868904308601C
:103620000B9A43F60841C4F2010108689043086010
:103630000D9800F0030081000F2088400A900A9B3B
:103640000D9820F0030143F60802C4F201028858E5
:1036500098438850FFE70D984100032000FA01F3DA
:103660000F9A116899431160DDF834C00CF007011E
:103670008A000F2101FA02F30F996FF0030202EAA8
:103680005C020A44116A994311620D99490000FADB
:1036900001F30F9AD1689943D1600D9A012101FA83
:1036A00002F30F9A5168994351600D99490000FA4D
:1036B00001F20F99886890438860FFE7FFE70D9853
:1036C00001300D90DCE610B080BD0000000000006D
:1036D00080B582B0ADF80600BDF80600082815D107
:1036E000FFE740F2C020C2F20000027801219143BE
:1036F00001700078C00720B1FFE70120FDF794F8C2
:1037000003E00120FDF728F8FFE7FFE702B080BDE6
:1037100080B582B0ADF8060043F61440C4F2010053
:103720000068BDF8061008420CD0FFE7BDF806009F
:1037300043F61441C4F201010860BDF80600FFF72A
:10374000C7FFFFE702B080BD80B590B00F900E912B
:1037500000200D900C900B900A900F980021C4F25D
:103760000201884250D0FFE70F9840F20041C4F2B6
:103770000201884248D0FFE70F9840F60001C4F2EA
:103780000201884240D0FFE70F9840F60041C4F2A2
:103790000201884238D0FFE70F9841F20001C4F2DD
:1037A0000201884230D0FFE70F9841F20041C4F295
:1037B0000201884228D0FFE70F9841F60001C4F2C9
:1037C0000201884220D0FFE70F9841F60041C4F281
:1037D0000201884218D0FFE70F9842F20001C4F2BC
:1037E0000201884210D0FFE70F9842F20041C4F274
:1037F0000201884208D0FFE70F9842F60001C4F2A8
:103800000201884201D1FFE707E04EF27360C0F683
:103810000000AA2107F000F8FFE70E98008808B121
:10382000FFE707E04EF27360C0F60000AB2106F040
:10383000F3FFFFE70E984068E8B3FFE70E98406893
:10384000012838D0FFE70E984068112833D0FFE7F1
:103850000E98406802282ED0FFE70E984068122884
:1038600029D0FFE70E984068B0F5881F23D0FFE706
:103870000E984068B0F5041F1DD0FFE70E98406811
:10388000B0F5441F17D0FFE70E984068B0F5901FC1
:1038900011D0FFE70E984068B0F5081F0BD0FFE786
:1038A0000E984068B0F5481F05D0FFE70E984068B5
:1038B000032801D1FFE707E04EF27360C0F6000075
:1038C000AC2106F0A9FFFFE700200D90FFE70D985F
:1038D0000F2800F28483FFE70D99012088400C90A7
:1038E0000E9800680C9908400B900B980C99884230
:1038F00040F06F83FFE70E98406800F00300012856
:1039000007D0FFE70E98406800F0030002284BD173
:10391000FFE70E98C06878B1FFE70E98C0680128ED
:103920000AD0FFE70E98C068022805D0FFE70E987E
:10393000C068032801D1FFE707E04EF27360C0F6CC
:103940000000BD2106F068FFFFE70F9880680A902D
:103950000D984100032000FA01F10A9888430A906B
:103960000E98C0680D99490000FA01F10A980843C1
:103970000A900A980F9988600F9840680A900D99EC
:10398000012000FA01F10A9888430A900E984068D5
:10399000C0F300100D9900FA01F10A9808430A904B
:1039A0000A980F994860FFE70E98406800F00300FE
:1039B00003282FD0FFE70E98806850B1FFE70E98DC
:1039C0008068012805D0FFE70E988068022801D1A1
:1039D000FFE707E04EF27360C0F60000CE2106F06C
:1039E0001BFFFFE70F98C0680A900D984100032065
:1039F00000FA01F10A9888430A900E9880680D99A0
:103A0000490000FA01F10A9808430A900A980F99B0
:103A1000C860FFE70E98406800F00300022840F0FD
:103A20009081FFE70E980069002800F05B81FFE7B6
:103A30000E980069012800F05581FFE70E98006993
:103A4000002800F04F81FFE70E980069002800F081
:103A50004981FFE70E980069002800F04381FFE7E5
:103A60000E980069012800F03D81FFE70E9800697B
:103A7000022800F03781FFE70E980069022800F065
:103A80003181FFE70E980069022800F02B81FFE7E3
:103A90000E980069032800F02581FFE70E98006961
:103AA000032800F01F81FFE70E980069032800F04B
:103AB0001981FFE70E980069032800F01381FFE7E2
:103AC0000E980069032800F00D81FFE70E98006949
:103AD000032800F00781FFE70E980069042800F032
:103AE0000181FFE70E980069042800F0FB80FFE7E2
:103AF0000E980069042800F0F580FFE70E98006931
:103B0000042800F0EF80FFE70E980069042800F019
:103B1000E980FFE70E980069052800F0E380FFE7E1
:103B20000E980069052800F0DD80FFE70E98006917
:103B3000052800F0D780FFE70E980069052800F0FF
:103B4000D180FFE70E980069052800F0CB80FFE7E1
:103B50000E980069052800F0C580FFE70E980069FF
:103B6000062800F0BF80FFE70E980069062800F0E5
:103B7000B980FFE70E980069072800F0B380FFE7DF
:103B80000E980069072800F0AD80FFE70E980069E5
:103B9000072800F0A780FFE70E980069072800F0CB
:103BA000A180FFE70E980069072800F09B80FFE7DF
:103BB0000E980069072800F09580FFE70E980069CD
:103BC000072800F08F80FFE70E980069082800F0B2
:103BD0008980FFE70E980069082800F08380FFE7DE
:103BE0000E98006908287DD0FFE70E980069082824
:103BF00078D0FFE70E980069082873D0FFE70E9889
:103C0000006908286ED0FFE70E980069082869D07F
:103C1000FFE70E980069092864D0FFE70E98006955
:103C200009285FD0FFE70E98006909285AD0FFE7FE
:103C30000E980069092855D0FFE70E9800690928F9
:103C400050D0FFE70E98006909284BD0FFE70E9887
:103C500000690A2846D0FFE70E980069092841D07C
:103C6000FFE70E9800690A283CD0FFE70E9800692C
:103C70000A2837D0FFE70E9800690A2832D0FFE7FC
:103C80000E9800690B282DD0FFE70E9800690A28CE
:103C900028D0FFE70E9800690B2823D0FFE70E9885
:103CA00000690B281ED0FFE70E9800690C2819D078
:103CB000FFE70E9800690C2814D0FFE70E98006902
:103CC0000C280FD0FFE70E9800690F280AD0FFE7F5
:103CD0000E9800690D2805D0FFE70E9800690E28A0
:103CE00001D1FFE707E04EF27360C0F60000DB2170
:103CF00006F092FDFFE70F980D996FF0030202EABC
:103D000051010844006A0A900D9800F007008100F4
:103D10000F2000FA01F10A9888430A900E98006972
:103D20000D9901F00701890000FA01F10A98084392
:103D30000A900A980F990D9B02EA530211440862F7
:103D4000FFE70F9800680A900D984100032000FAE1
:103D500001F10A9888430A900E98406800F0030029
:103D60000D99490000FA01F10A9808430A900A984F
:103D70000F9908600E9880798007002800F028814C
:103D8000FFE7FFE743F64400C4F20200016841F494
:103D900080410160006800F4804009900998FFE7C5
:103DA0000D9820F0030043F60801C4F201014058C9
:103DB0000A900D9800F0030081000F2000FA01F135
:103DC0000A9888430A900F980021C4F202018842A1
:103DD00003D1FFE7002008907AE00F9840F20041FD
:103DE000C4F20201884203D1FFE7012007906CE092
:103DF0000F9840F60001C4F20201884203D1FFE7A8
:103E0000022006905EE00F9840F60041C4F20201E5
:103E1000884203D1FFE70320059050E00F9841F25C
:103E20000001C4F20201884203D1FFE7042004909C
:103E300042E00F9841F20041C4F20201884203D1EE
:103E4000FFE70520039034E00F9841F60001C4F22B
:103E50000201884203D1FFE70620029026E00F9876
:103E600041F60041C4F20201884203D1FFE7072076
:103E7000019018E00F9842F20001C4F2020188425A
:103E800003D1FFE7082000900AE00F9942F20042B8
:103E9000C4F202020A20914208BF09200090FFE705
:103EA00000980190FFE701980290FFE702980390C5
:103EB000FFE703980490FFE704980590FFE7059853
:103EC0000690FFE706980790FFE707980890FFE73E
:103ED0000898C0B20D9901F00301890000FA01F1C0
:103EE0000A9808430A900A980D9921F0030143F6B5
:103EF0000802C4F20102885043F60840C4F20100EF
:103F000000680A900B990A9888430A900E98807965
:103F1000C006002805D5FFE70B990A9808430A90C8
:103F2000FFE70A9843F60841C4F20101086043F62E
:103F30000C40C4F2010000680A900B990A9888436B
:103F40000A900E9880798006002805D5FFE70B9926
:103F50000A9808430A90FFE70A9843F60C41C4F216
:103F60000101086043F60440C4F2010000680A90B1
:103F70000B990A9888430A900E9880798007002848
:103F800005D5FFE70B990A9808430A90FFE70A98BE
:103F900043F60441C4F20101086043F60040C4F254
:103FA000010000680A900B990A9888430A900E98BD
:103FB0008079C00728B1FFE70B990A9808430A9057
:103FC000FFE70A9843F60041C4F201010860FFE7E9
:103FD000FFE7FFE70D9801300D90FFF778BC10B0B8
:103FE00080BD00000000000080B582B00190ADF8F7
:103FF00002108DF80120BDF8020008B1FFE708E0CB
:104000004EF27360C0F6000040F2971106F004FC17
:10401000FFE79DF8010028B1FFE79DF801000128A6
:1040200001D1FFE708E04EF27360C0F600004FF4E4
:10403000CC7106F0F1FBFFE79DF8010028B1FFE726
:10404000BDF802000199886105E0BDF80200000496
:1040500001998861FFE702B080BD00000000000008
:104060004AF21020C2F20100006870470000000010
:1040700040F22820C2F2000002784AF21021C2F277
:10408000010108681044086070470000000000004B
:1040900080B543F60041C4F20201086840F4807024
:1040A0000860032000F0CCF80F2000F005F800F0C5
:1040B0003BF8002080BD000080B582B0009040F247
:1040C0001020C2F20000006840F22821C2F2000174
:1040D0000A784FF47A71B1FBF2F1B0FBF1F002F023
:1040E00057FC20B1FFE701208DF8070018E0009889
:1040F0000F280DD8FFE700994FF0FF30002200F0A5
:104100006BF8009840F22C21C2F20001086003E035
:1041100001208DF8070003E000208DF80700FFE77D
:104120009DF8070002B080BD80B582B0FFE743F67E
:104130004000C4F20200016841F080510160006853
:1041400000F0805001900198FFE7FFE743F644003C
:10415000C4F20200016841F480410160006800F48B
:10416000804000900098FFE76FF001000F210022CF
:1041700000F032F802B080BD80B582B08DF8070043
:104180009DF90700002801D4FFE707E04EF2AC607C
:10419000C0F60000CD2106F03FFBFFE79DF90700C8
:1041A00006F0BAFA02B080BD80B582B08DF8070083
:1041B0009DF90700002801D4FFE707E04EF2AC604C
:1041C000C0F60000BD2106F027FBFFE79DF90700C0
:1041D00006F0BEFA02B080BD80B586B08DF817003B
:1041E000049103920020029003980F2801D8FFE762
:1041F00007E04EF2AC60C0F60000A92106F00CFB0F
:10420000FFE704980F2801D8FFE707E04EF2AC6003
:10421000C0F60000AA2106F0FFFAFFE706F0B0FAA8
:1042200002909DF91700019002980499039A05F0F5
:1042300097F80146019806F0ABFA06B080BD000081
:1042400080B582B001900198072810D0FFE701984F
:1042500006280CD0FFE70198052808D0FFE7019851
:10426000042804D0FFE70198032801D1FFE707E005
:104270004EF2AC60C0F60000912106F0CDFAFFE7E7
:10428000019806F0A9FA02B080BD0000000000000D
:1042900080B584B000200290FFE743F64000C4F2EE
:1042A0000200016841F080510160006800F0805018
:1042B00001900198FFE747F20001C4F2000108688D
:1042C00040F480300860FFF7CBFE0290FFE747F232
:1042D0000400C4F20000006800F48030B0F5803FB4
:1042E0000DD0FFE7FFF7BCFE0299401AB0F57A7FC8
:1042F00004D9FFE703208DF80F0028E0E7E747F235
:104300000001C4F20001086840F400300860FFF7C3
:10431000A7FE0290FFE747F20400C4F20000006825
:1043200000F40030B0F5003F0DD0FFE7FFF798FE36
:104330000299401AB0F57A7F04D9FFE703208DF87F
:104340000F0004E0E7E700208DF80F00FFE79DF87D
:104350000F0004B080BD000047F20001C4F200016C
:10436000086840F48070086070470000000000009A
:1043700080B588B0069000200590049003900290CC
:10438000019006980078C007002840F0CB80FFE736
:104390000698006800F00800082800F0C380FFE7D6
:1043A0000698006800F01000102800F0BB80FFE7BE
:1043B0000698006800F04000402800F0B380FFE756
:1043C0000698006800F08000802800F0AB80FFE7CE
:1043D0000698006800F48070B0F5807F00F0A2803D
:1043E000FFE70698006800F40070B0F5007F00F069
:1043F0009980FFE70698006800F48060B0F5806F50
:1044000000F09080FFE70698006800F40060B0F5C7
:10441000006F00F08780FFE70698006800F4805086
:10442000B0F5805F7ED0FFE70698006800F400508A
:10443000B0F5005F76D0FFE70698006800F4804092
:10444000B0F5804F6ED0FFE70698006800F400409A
:10445000B0F5004F66D0FFE70698006800F48030A2
:10446000B0F5803F5ED0FFE70698006800F40030AA
:10447000B0F5003F56D0FFE70698006800F48020B2
:10448000B0F5802F4ED0FFE70698006800F40020BA
:10449000B0F5002F46D0FFE70698006800F48010C2
:1044A000B0F5801F3ED0FFE70698006800F40010CA
:1044B000B0F5001F36D0FFE70698006800F48000D2
:1044C000B0F5800F2ED0FFE70698006800F40000DA
:1044D000B0F5000F26D0FFE70698006800F0806076
:1044E000B0F1806F1ED0FFE70698006800F0006012
:1044F000B0F1006F16D0FFE70698006800F080501A
:10450000B0F1805F0ED0FFE70698006800F0807081
:10451000B0F1807F06D0FFE706980078800600287B
:1045200001D5FFE707E04EF23860C0F600007221C7
:1045300006F072F9FFE706980078C00750B3FFE76E
:104540000698406B30B1FFE70698406BB0F5000F5E
:1045500001D1FFE707E04EF23860C0F60000782195
:1045600006F05AF9FFE7FFE743F60801C4F202013B
:10457000086820F4000008600698426B0868104341
:104580000860FFE70698406B18B9FFE7012002902A
:10459000FFE7FFE706988078000700283BD5FFE794
:1045A0000698C06B90B1FFE70698C06BB0F5801F0E
:1045B0000CD0FFE70698C06BB0F5001F06D0FFE7F0
:1045C0000698C06BB0F5401F01D1FFE707E04EF23F
:1045D0003860C0F60000882106F01EF9FFE743F6B8
:1045E0008C01C4F20201086820F44010069AD26BD4
:1045F000104308600698C06BB0F5801F03D1FFE739
:1046000001200290FFE70698C06B18B9FFE7012070
:104610000190FFE7FFE706988078C00600283BD5A9
:10462000FFE70698006C90B1FFE70698006CB0F5C4
:10463000800F0CD0FFE70698006CB0F5000F06D095
:10464000FFE70698006CB0F5400F01D1FFE707E0E7
:104650004EF23860C0F600009C2106F0DDF8FFE75E
:1046600043F68C01C4F20201086820F44000069A67
:10467000126C104308600698006CB0F5800F03D1EF
:10468000FFE701200290FFE70698006C18B9FFE7EA
:1046900001200190FFE7FFE70698C078C00718B136
:1046A000FFE701200290FFE70698007880060028C7
:1046B00040F1E181FFE70698006BB0F5807F00F0E4
:1046C0002581FFE70698006BB0F5007F00F01E81A2
:1046D000FFE70698006B40F20031C0F20201884209
:1046E00000F01481FFE70698006B40F20031C0F241
:1046F0000301884200F00A81FFE70698006B40F250
:104700000031C0F20401884200F00081FFE7069802
:10471000006B40F20031C0F20501884200F0F680E3
:10472000FFE70698006B40F20031C0F206018842B4
:1047300000F0EC80FFE70698006B40F20031C0F219
:104740000701884200F0E280FFE70698006B40F224
:104750000031C0F20801884200F0D880FFE70698D7
:10476000006B40F20031C0F20901884200F0CE80B7
:10477000FFE70698006B40F20031C0F20A01884260
:1047800000F0C480FFE70698006B40F20031C0F2F1
:104790000B01884200F0BA80FFE70698006B40F2F8
:1047A0000031C0F20C01884200F0B080FFE70698AB
:1047B000006B40F20031C0F20D01884200F0A6808B
:1047C000FFE70698006B40F20031C0F20E0188420C
:1047D00000F09C80FFE70698006B40F20031C0F2C9
:1047E0000F01884200F09280FFE70698006B40F2CC
:1047F0000031C0F21001884200F08880FFE706987F
:10480000006B40F20031C0F2110188427ED0FFE718
:104810000698006B40F20031C0F21201884275D058
:10482000FFE70698006B40F20031C0F213018842A6
:104830006CD0FFE70698006B40F20031C0F2140123
:10484000884263D0FFE70698006B40F20031C0F267
:10485000150188425AD0FFE70698006B40F20031FC
:10486000C0F21601884251D0FFE70698006B40F273
:104870000031C0F21701884248D0FFE70698006B6C
:1048800040F20031C0F2180188423FD0FFE706989D
:10489000006B40F20031C0F21901884236D0FFE7C8
:1048A0000698006B40F20031C0F21A0188422DD008
:1048B000FFE70698006B40F20031C0F21B0188420E
:1048C00024D0FFE70698006B40F20031C0F21C01D3
:1048D00088421BD0FFE70698006B40F20031C0F21F
:1048E0001D01884212D0FFE70698006B40F20031AC
:1048F000C0F21E01884209D0FFE70698006B40F223
:104900000031C0F21F01884201D1FFE707E04EF2FB
:104910003860C0F60000B72105F07EFFFFE7FFE733
:1049200043F64000C4F20200016841F0805101608A
:10493000006800F0805000900098FFE747F2000107
:10494000C4F20001086840F480700860FFF788FB3B
:104950000590FFE747F20000C4F200000068C005C0
:1049600000280DD4FFE7FFF77BFB0599401A652867
:1049700005D3FFE703208DF81F0000F016BFE9E71D
:1049800043F67000C4F20200006800F44070049026
:10499000049800283FD0FFE704980699096B01F4BA
:1049A0004071884237D0FFE743F67000C4F202003E
:1049B000016821F440710491016841F48031016083
:1049C000016821F480310160049901600068C0072A
:1049D00000B3FFE7FFF744FB0590FFE743F67000E5
:1049E000C4F20200006800F002010020B0EB510F99
:1049F0000FD1FFE7FFF734FB0599401A41F28931E7
:104A0000884205D3FFE703208DF81F0000F0CDBEDC
:104A1000E4E7FFE7FFE7FFE70698006B00F440706C
:104A2000B0F5407F11D1FFE743F60801C4F202015F
:104A3000086820F4F810069A126B4FF6FF43C0F690
:104A4000FF731A401043086008E043F60801C4F2FF
:104A50000201086820F4F8100860FFE70698026B6E
:104A60006FF31F3243F67001C4F20201086810436D
:104A70000860FFE7FFE706980078C006002823D506
:104A8000FFE70698806B30B1FFE70698806BB0F1C6
:104A9000807F01D1FFE707E04EF23860C0F60000EA
:104AA000F12105F0B9FEFFE7FFE743F68C01C4F200
:104AB0000201086820F0807008600698826B086820
:104AC00010430860FFE7FFE706984078400600289B
:104AD00025D5FFE70698406E60B1FFE70698406E67
:104AE000B0F5803F06D0FFE70698406EB0F5003F76
:104AF00001D1FFE707E04EF23860C0F60000FB216D
:104B000005F08AFEFFE743F69001C4F2020108684F
:104B100020F44030069A526E10430860FFE7069872
:104B200040780006002826D5FFE70698806E60B121
:104B3000FFE70698806EB0F5802F06D0FFE7069855
:104B4000806EB0F5002F01D1FFE708E04EF238602B
:104B5000C0F6000040F2051105F05EFEFFE743F6E7
:104B60009001C4F20201086820F44020069A926E77
:104B700010430860FFE706988078C00730B3FFE76E
:104B80000698C06E60B1FFE70698C06EB0F5801F52
:104B900006D0FFE70698C06EB0F5001F01D1FFE711
:104BA00008E04EF23860C0F6000040F20F1105F048
:104BB00033FEFFE743F69001C4F20201086820F4D7
:104BC0004010069AD26E10430860FFE7069880787E
:104BD0008007002826D5FFE70698006F60B1FFE741
:104BE0000698006FB0F5800F06D0FFE70698006FBB
:104BF000B0F5000F01D1FFE708E04EF23860C0F6D3
:104C0000000040F2191105F007FEFFE743F690019E
:104C1000C4F20201086820F44000069A126F1043A3
:104C20000860FFE7069800784006002829D5FFE7CE
:104C30000698406C78B1FFE70698406C01280AD0CE
:104C4000FFE70698406C032805D0FFE70698406C04
:104C5000022801D1FFE708E04EF23860C0F60000FC
:104C600040F2231105F0D8FDFFE743F69001C4F2AE
:104C70000201086820F00300069A526C1043086095
:104C8000FFE7069800780006002829D5FFE7069878
:104C9000806C78B1FFE70698806C04280AD0FFE7A3
:104CA0000698806C0C2805D0FFE70698806C0828D1
:104CB00001D1FFE708E04EF23860C0F6000040F294
:104CC0002D1105F0A9FDFFE743F69001C4F20201A2
:104CD000086820F00C00069A926C10430860FFE709
:104CE00006984078C00748B3FFE70698C06C78B1D3
:104CF000FFE70698C06C10280AD0FFE70698C06C42
:104D0000302805D0FFE70698C06C202801D1FFE7C6
:104D100008E04EF23860C0F6000040F2371105F0AE
:104D20007BFDFFE743F69001C4F20201086820F022
:104D30003000069AD26C10430860FFE7069840786E
:104D40008007002829D5FFE70698006D78B1FFE7B6
:104D50000698006D40280AD0FFE70698006DC0282D
:104D600005D0FFE70698006D802801D1FFE708E035
:104D70004EF23860C0F6000040F2411105F04CFDE3
:104D8000FFE743F69001C4F20201086820F0C0007A
:104D9000069A126D10430860FFE7069840784007B6
:104DA00000282CD5FFE70698406D90B1FFE70698E4
:104DB000406DB0F5807F0CD0FFE70698406DB0F5F0
:104DC000407F06D0FFE70698406DB0F5007F01D127
:104DD000FFE708E04EF23860C0F6000040F24B11E9
:104DE00005F01AFDFFE743F69001C4F202010868DE
:104DF00020F44070069A526D10430860FFE7069851
:104E00004078000700282CD5FFE70698806D90B108
:104E1000FFE70698806DB0F5806F0CD0FFE706982D
:104E2000806DB0F5406F06D0FFE70698806DB0F555
:104E3000006F01D1FFE708E04EF23860C0F60000D5
:104E400040F2551105F0E8FCFFE743F69001C4F28B
:104E50000201086820F44060069A926D10430860D1
:104E6000FFE706984078C00600282CD5FFE7069893
:104E7000C06D90B1FFE70698C06DB0F5805F0CD0B3
:104E8000FFE70698C06DB0F5405F06D0FFE70698D3
:104E9000C06DB0F5005F01D1FFE708E04EF2386069
:104EA000C0F6000040F25F1105F0B6FCFFE743F6E4
:104EB0009001C4F20201086820F44050069AD26DB5
:104EC00010430860FFE706984078800600282CD53C
:104ED000FFE70698006E90B1FFE70698006EB0F508
:104EE000804F0CD0FFE70698006EB0F5404F06D01B
:104EF000FFE70698006EB0F5004F01D1FFE708E02C
:104F00004EF23860C0F6000040F2691105F084FCF2
:104F1000FFE743F69001C4F20201086820F4404024
:104F2000069A126E10430860FFE7069880784006E4
:104F3000002820D5FFE70698806FB0F1806F04D07D
:104F4000FFE70698806F08B9FFE708E04EF2386087
:104F5000C0F6000040F2731105F05EFCFFE743F677
:104F60009001C4F20201086820F08060069A926FF6
:104F700010430860FFE7069880788006002829D54E
:104F8000FFE70698C06FB0F1006F04D0FFE7069806
:104F9000C06F08B9FFE708E04EF23860C0F60000C5
:104FA00040F27D1105F038FCFFE743F69001C4F2B2
:104FB0000201086820F00060069AD26F1043086072
:104FC0000698C06FB0F1006F03D1FFE70120019098
:104FD000FFE7FFE7069800780007002803D5FFE702
:104FE00001200190FFE706988078400700282CD523
:104FF000FFE70698406F90B1FFE70698406FB0F169
:10500000807F0CD0FFE70698406FB0F1007F06D09C
:10501000FFE70698406FB0F1407F01D1FFE708E05D
:105020004EF23860C0F6000040F2951105F0F4FB36
:10503000FFE743F69001C4F20201086820F04070D7
:10504000069A526F10430860FFE7069880780006C2
:10505000002823D5FFE70698D0F88000B0F1805FE4
:1050600005D0FFE70698D0F8800008B9FFE708E010
:105070004EF23860C0F6000040F29F1105F0CCFB04
:10508000FFE743F69001C4F20201086820F0805067
:10509000069AD2F8802010430860FFE70698C0788F
:1050A0004007002823D5FFE70698D0F88400B0F128
:1050B000005F05D0FFE70698D0F8840008B9FFE745
:1050C00008E04EF23860C0F600004FF4D57105F0EC
:1050D000A3FBFFE743F69001C4F20201086820F049
:1050E0000050069AD2F8842010430860FFE7069823
:1050F000C0780007002823D5FFE70698D0F888007D
:1051000038B1FFE70698D0F88800B0F1007F01D1F0
:10511000FFE708E04EF23860C0F600004FF4DA71A5
:1051200005F07AFBFFE743F68C01C4F20201086840
:1051300020F00070069AD2F8882010430860FFE73C
:105140000698C078C006002823D5FFE70698D0F857
:105150008C0038B1FFE70698D0F88C00B0F1806F72
:1051600001D1FFE708E04EF23860C0F600004FF4CE
:10517000DF7105F051FBFFE743F68C01C4F2020139
:10518000086820F08060069AD2F88C2010430860EE
:10519000FFE70298012807D0FFE70698C07880074C
:1051A000002840F19481FFE743F60001C4F20201B8
:1051B000086820F080600860FEF752FF0590FFE766
:1051C00043F60000C4F20200006800F00061002015
:1051D000B0EBD16F0CD0FFE7FEF742FF0599401A04
:1051E000652804D3FFE703208DF81F00DDE2E7E721
:1051F00006984068322807D3FFE706984068B0F564
:10520000D87F01D8FFE708E04EF23860C0F6000012
:105210004FF4ED7105F000FBFFE706980078C0073A
:1052200090B3FFE70698406B70BBFFE70698806875
:10523000022806D3FFE706988068072801D8FFE711
:1052400008E04EF23860C0F600004FF4F07105F04F
:10525000E3FAFFE743F68401C4F202010868C0F3F1
:10526000014004900868C0F303600390069A5068F8
:1052700092688001049B40EA0340039B40EA03607C
:1052800040EA02700860FFE706988078000700286F
:1052900006D5FFE70698C06BB0F5801F0CD0FFE77E
:1052A00006988078C006002853D5FFE70698006C62
:1052B000B0F5800F4DD1FFE70698C068022806D3ED
:1052C000FFE70698C0680F2801D8FFE708E04EF214
:1052D0003860C0F600004FF4F87105F09DFAFFE762
:1052E0000698406A30B1FFE70698406A202801D846
:1052F000FFE708E04EF23860C0F600004FF4F971A5
:1053000005F08AFAFFE743F68401C4F20201086857
:10531000C0F3014004900868C0F302700390069A3D
:105320005068D2688001049B40EA034040EA026072
:10533000039A40EA0270086043F68C01C4F202014D
:10534000086820F01F00069A526A013A104308606C
:10535000FFE70698C078C007B8B3FFE70698006972
:1053600078B1FFE70698006901280AD0FFE70698A0
:105370000069022805D0FFE706980069032801D1DB
:10538000FFE708E04EF23860C0F6000040F2052169
:1053900005F042FAFFE743F68401C4F2020108680F
:1053A000C0F3036004900868C0F302700390069A8B
:1053B00050681269800140EA0240049A40EA0260A3
:1053C000039A40EA02700860FFE70698C0788007F9
:1053D000002857D5FFE70698006978B1FFE70698DF
:1053E000006901280AD0FFE706980069022805D065
:1053F000FFE706980069032801D1FFE708E04EF2B5
:105400003860C0F600004FF4057105F005FAFFE7BB
:1054100006988068022806D3FFE706988068072868
:1054200001D8FFE708E04EF23860C0F6000040F215
:10543000152105F0F1F9FFE70698C068022806D3A8
:10544000FFE70698C0680F2801D8FFE708E04EF292
:105450003860C0F6000040F2162105F0DDF9FFE7E4
:10546000069B58689968DA681B69800140EA034026
:1054700040EA026040EA017043F68401C4F202018E
:105480000860FFE743F60001C4F20201086840F03B
:1054900080600860FEF7E4FD0590FFE743F600003A
:1054A000C4F20200006800F000610020B0EBD16F90
:1054B0000CD1FFE7FEF7D4FD0599401A652804D307
:1054C000FFE703208DF81F006FE1E7E7FFE7019892
:1054D000012840F06681FFE743F60001C4F20201B3
:1054E000086820F080500860FEF7BAFD0590FFE7DD
:1054F00043F60000C4F20200006800F000510020F2
:10550000B0EB517F0CD0FFE7FEF7AAFD0599401ADA
:10551000652804D3FFE703208DF81F0045E1E7E786
:1055200006984069322807D3FFE706984069B0F52E
:10553000D87F01D8FFE708E04EF23860C0F60000DF
:105540004FF4117105F068F9FFE7069880780007BD
:10555000002804D5FFE70698C06B58B1FFE706980E
:105560008078C006002855D5FFE70698006C002813
:1055700050D1FFE706988069022806D3FFE7069816
:1055800080690F2801D8FFE708E04EF23860C0F6C6
:10559000000040F24B2105F03FF9FFE70698806AD2
:1055A00030B1FFE70698806A202801D8FFE708E0BD
:1055B0004EF23860C0F6000040F24D2105F02CF9A3
:1055C000FFE743F68801C4F202010868C0F3014016
:1055D00004900868C0F302700390069A50699269BB
:1055E0008001049B40EA034040EA0260039A40EADB
:1055F0000270086043F68C01C4F20201086820F4CE
:10560000F850069A936A6FF0FF0202EB03221043F0
:105610000860FFE706988078800600283DD5FFE700
:105620000698C06FB0F1006F37D1FFE70698006AA7
:1056300078B1FFE70698006A01280AD0FFE70698CC
:10564000006A022805D0FFE70698006A032801D106
:10565000FFE708E04EF23860C0F600004FF4187122
:1056600005F0DAF8FFE743F68801C4F202010868A2
:10567000C0F3036004900868C0F302700390069AB8
:105680005069126A800140EA0240049A40EA0260CE
:10569000039A40EA02700860FFE706980078000766
:1056A000002859D5FFE70698C069022806D3FFE70E
:1056B0000698C069072801D8FFE708E04EF2386075
:1056C000C0F6000040F26F2105F0A6F8FFE706984B
:1056D000C06A90B1FFE70698C06AB0F5803F0CD071
:1056E000FFE70698C06AB0F5003F06D0FFE70698CE
:1056F000C06AB0F5403F01D1FFE708E04EF23860E4
:10570000C0F600004FF41C7105F086F8FFE743F681
:105710008801C4F202010868C0F3036004900868BD
:10572000C0F301400390069A5069D2698001039B3F
:1057300040EA0340049B40EA036040EA02700860CC
:1057400043F68C01C4F20201086820F44030069A46
:10575000D26A10430860FFE743F60001C4F2020179
:10576000086840F080500860FEF77AFC0590FFE77B
:1057700043F60000C4F20200006800F0005100206F
:10578000B0EB517F0CD1FFE7FEF76AFC0599401A98
:10579000652804D3FFE703208DF81F0005E0E7E745
:1057A000FFE700208DF81F00FFE79DF81F0008B0FD
:1057B00080BD00000000000080B584B0029001911F
:1057C00000200090029820B9FFE701208DF80F001B
:1057D0001BE20298006830B1FFE7029800680F28CA
:1057E00001D8FFE708E04EF20060C0F6000040F28A
:1057F000DD2105F011F8FFE70198E0B3FFE701981C
:10580000012838D0FFE70198022834D0FFE701983B
:10581000032830D0FFE7019804282CD0FFE7019837
:10582000052828D0FFE70198062824D0FFE7019833
:10583000072820D0FFE7019808281CD0FFE701982F
:10584000092818D0FFE701980A2814D0FFE701982B
:105850000B2810D0FFE701980C280CD0FFE7019827
:105860000D2808D0FFE701980E2804D0FFE7019823
:105870000F2801D1FFE708E04EF20060C0F60000FB
:1058800040F2DE2104F0C8FFFFE7019843F6004133
:10589000C4F20201096801F00F01884216D9FFE73E
:1058A00043F60040C4F20200016821F00F01019AA2
:1058B00011430160006800F00F000199884204D094
:1058C000FFE701208DF80F009FE1FFE702980078C5
:1058D0008007002860D5FFE702980078400700287D
:1058E00009D5FFE743F60801C4F20201086840F455
:1058F000E0500860FFE7029800780007002809D50B
:10590000FFE743F60801C4F20201086840F4604072
:105910000860FFE70298806840B3FFE7029880685C
:10592000802823D0FFE70298806890281ED0FFE7E8
:1059300002988068A02819D0FFE702988068B028F4
:1059400014D0FFE702988068C0280FD0FFE70298C4
:105950008068D0280AD0FFE702988068E02805D048
:10596000FFE702988068F02801D1FFE708E04EF2D7
:105970000060C0F6000040F2023104F04DFFFFE786
:1059800043F60801C4F20201086820F0F000029A10
:10599000926810430860FFE702980078C00700286B
:1059A00000F08280FFE70298406850B1FFE702985C
:1059B0004068012805D0FFE702984068022801D11D
:1059C000FFE708E04EF20060C0F6000040F2093147
:1059D00004F022FFFFE702984068012811D1FFE799
:1059E00043F60000C4F20200006800F40031002019
:1059F000B0EB514F04D1FFE701208DF80F0004E117
:105A000027E002984068022811D1FFE743F6000022
:105A1000C4F20200006800F000710020B0EB516F8A
:105A200004D1FFE701208DF80F00EEE010E043F60F
:105A30000000C4F20200006800F002010020B0EB98
:105A4000510F04D1FFE701208DF80F00DDE0FFE7E3
:105A5000FFE743F60801C4F20201086820F00300E2
:105A6000029A526810430860FEF7FAFA0090FFE7C6
:105A700043F60800C4F20200006800F00C0002992E
:105A80004968B0EB810F0ED0FFE7FEF7E9FA009905
:105A9000401A41F28931884204D3FFE703208DF890
:105AA0000F00B2E0E4E7FFE7019843F60041C4F2DB
:105AB0000201096801F00F01884216D2FFE743F6A0
:105AC0000040C4F20200016821F00F01019A114365
:105AD0000160006800F00F000199884204D0FFE7E0
